:100000000C9434000C9451000C9451000C94510049
:100010000C9451000C9451000C9451000C9451001C
:100020000C9451000C9451000C9451000C9451000C
:100030000C9451000C9451000C9451000C945100FC
:100040000C9451000C9451000C94C3010C94510079
:100050000C9451000C9451000C9451000C945100DC
:100060000C9451000C94510011241FBECFEFD8E026
:10007000DEBFCDBF11E0A0E0B1E0E4E3F5E002C0F7
:1000800005900D92AA33B107D9F712E0AAE3B1E0C7
:1000900001C01D92AC3DB107E1F70E947D010C94B7
:1000A00098020C9400005F9A8FE295E70197F1F7B0
:1000B00000C000005F988FE295E70197F1F700C05C
:1000C00000005F9A089584E384B92A9A81E58CBD83
:1000D00008950DB407FEFDCF08958EBD0E946900FE
:1000E000089581E00E946D008EB50895CF932A98FF
:1000F0000E947100C82F0E9471002A9A3C2F20E0B4
:10010000887FA901480F511DCA01CF910895CF934F
:10011000DF93C8ECD0E0CE010E946F0220E880306F
:10012000920711F4CE0107C0229681E0C43AD807A5
:1001300091F788EC90E0DF91CF9108959C01CB017D
:10014000B9010E94750208950F931F93CF93DF9317
:100150008C01C0913F01D0914001229681E0C43AC8
:10016000D80710F0C8ECD0E08C2F9D2F60E070E82D
:100170000E94750280913F0190914001B8010E9458
:100180007502C0933F01D0934001DF91CF911F9141
:100190000F910895CF92DF92EF92FF920F931F93EA
:1001A000CF93DF93E0903F01F090400188ECE81698
:1001B000F10419F0E701229702C0C2EAD1E08C2FC6
:1001C0009D2FEC16FD06C1F003E411E00F2EF4EABA
:1001D000CF2EF1E0DF2EF02D0E946F02F801819307
:1001E00091938F01C93CD10508F4E60122978C2F29
:1001F0009D2FEC16FD0681F783E491E0DF91CF910E
:100200001F910F91FF90EF90DF90CF900895909302
:10021000C5008093C40088E98093C1008EE080937C
:10022000C2000895E0ECF0E0908195FFFDCF80934F
:10023000C6000895E0ECF0E080818823ECF780911F
:10024000C6000895CF93DF93EC018881882331F0B5
:1002500021960E94120189918823D9F7DF91CF91CD
:100260000895CF92DF92EF92FF920F931F93CF9357
:10027000DF930E94CA00082F192FC0E0D0E00F2E94
:10028000F0E0CF2EF1E0DF2EF02DC6010E9422011A
:1002900021968D2F0E9412018C2F0E94120178014D
:1002A000F801819191918F01892F0E941201F7012C
:1002B00080810E941201CD36D10539F7DF91CF91AF
:1002C0001F910F91FF90EF90DF90CF900895CF9303
:1002D000CFEFCAB90E94530017B8C8B9789483E326
:1002E00090E00E9407010E9463000E9487009093A3
:1002F000400180933F01CF9108950E9467010F2E26
:10030000F8EBAF2EFBE0BF2EF02D03E812E00F2E2E
:10031000F0E0EF2EF1E0FF2EF02D0F2EF6E0CF2EC5
:10032000F1E0DF2EF02DE50180913E01882321F4DC
:10033000C6010E94220111C0C7010E94220180E073
:100340000E94120180E00E941201809184020E94AA
:100350001201D8018C910E9412018FEF91EEA4E05E
:1003600081509040A040E1F700C000000E9476005C
:1003700090938402809383022197B1F60E94A40097
:100380000E943101D0CF1F920F920FB60F9211240D
:100390002F933F934F935F936F937F938F939F938D
:1003A000AF93BF93EF93FF9380913A0190913B01FC
:1003B0008035910521F410923B0110923A01809111
:1003C0003A0190913B012091C600FC01EB57FD4F93
:1003D0002083DF0119972C912093D502DF01189714
:1003E0002C912093D602DF0117972C912093D702EE
:1003F000DF0116972C912093D802DF0115972C91DD
:100400002093D902DF0114972C912093DA023397BD
:1004100020812093DB02019690933B0180933A0167
:1004200087E191E065ED72E047E050E00E946102F3
:10043000282F392F2115310539F481E080933E01B1
:1004400010923B0110923A018FE191E065ED72E06C
:1004500043E050E00E946102282F392F2115310519
:1004600031F410923E0110923B0110923A01FF913B
:10047000EF91BF91AF919F918F917F916F915F911C
:100480004F913F912F910F900FBE0F901F90189595
:100490002091410130914201F901EE0FFF1FE35E0F
:1004A000FD4F918380832F5F3F4F30934201209314
:1004B00041012233310521F4109242011092410191
:1004C0000895FB01DC014150504030F08D910190C6
:1004D000801919F40020B9F7881B990B0895A8E139
:1004E000B0E042E050E00C947C020E948A02272F88
:1004F0000C948B02DC01CB01FC01F999FECF06C004
:10050000F2BDE1BDF89A319600B40D9241505040D1
:10051000B8F70895262FF999FECF1FBA92BD81BD75
:1005200020BD0FB6F894FA9AF99A0FBE0196089575
:04053000F894FFCF6D
:1005340053555045520041544430303031393530F0
:1005440041364245460D00434F4E4E454354004408
:100554004953004E75766172616E64652074656DF1
:0A056400706572617475723A000050
:00000001FF
