:100000000C9434000C9451000C9451000C94510049
:100010000C9451000C9451000C9451000C9451001C
:100020000C9451000C9451000C9451000C9451000C
:100030000C9451000C9451000C9451000C945100FC
:100040000C9451000C9451000C9460020C945100DB
:100050000C9451000C9451000C9451000C945100DC
:100060000C9451000C94510011241FBECFEFD8E026
:10007000DEBFCDBF11E0A0E0B1E0E2E3FAE002C0F4
:1000800005900D92AA34B107D9F712E0AAE4B1E0C5
:1000900001C01D92A339B107E1F70E941D020C9423
:1000A00017050C9400005F985F9A089584E384B963
:1000B0002A9A81E58CBD08950DB407FEFDCF089501
:1000C0008EBD0E945C00089581E00E9460008EB5A4
:1000D0000895CF932A980E946400C82F0E9464005C
:1000E0002A9A3C2F20E0887FA901480F511DCA01A0
:1000F000CF910895CF93DF93C8ECD0E0CE010E945A
:10010000EE0420E88030920711F4CE0107C0229659
:1001100081E0C43AD80791F788EC90E0DF91CF9165
:1001200008959C01CB01B9010E94F40408950F9336
:100130001F93CF93DF938C01C0914F01D091500159
:10014000229681E0C43AD80710F0C8ECD0E08C2F9A
:100150009D2F60E070E80E94F40480914F0190911F
:100160005001B8010E94F404C0934F01D093500194
:10017000DF91CF911F910F910895CF92DF92EF926F
:10018000FF920F931F93CF93DF93E0904F01F09076
:10019000500188ECE816F10419F0E701229702C03B
:1001A000C2EAD1E08C2F9D2FEC16FD06C1F001E5CF
:1001B00011E00F2EF4EACF2EF1E0DF2EF02D0E9499
:1001C000EE04F801819391938F01C93CD10508F4A5
:1001D000E60122978C2F9D2FEC16FD0681F781E515
:1001E00091E0DF91CF911F910F91FF90EF90DF9001
:1001F000CF9008959093C5008093C40088E98093C0
:10020000C1008EE08093C2000895E0ECF0E09081A0
:1002100095FFFDCF8093C6000895CF92DF92EF92B5
:10022000FF92CF9320E030E040E05CE30E948B043B
:10023000C62ED72EE82EF92E462F572F682F792F4E
:10024000CB01BA0120E030E0A9010E9438038823E5
:100250003CF48DE20E940501F7FAF094F7F8F0946F
:10026000C701B60120E030E048EC52E40E94870468
:10027000882354F1C701B60120E030E048EC52E495
:100280000E943C030E94A903C62F862F805D0E9416
:1002900005012C2F30E084E690E0289FB001299FD3
:1002A000700D389F700D1124882777FD8095982F49
:1002B0000E94D7039B01AC01C701B6010E94D30283
:1002C000C62ED72EE82EF92EC701B60120E030E069
:1002D00040E251E40E948704882354F1C701B6012B
:1002E00020E030E040E251E40E943C030E94A90378
:1002F000C62F862F805D0E9405018C2F90E0880F0D
:10030000991FBC01660F771F660F771F680F791F53
:10031000882777FD8095982F0E94D7039B01AC0119
:10032000C701B6010E94D302C62ED72EE82EF92EA1
:10033000C701B60120E030E040E452E40E94D4025C
:100340000E94A903862F0E9405018EE20E940501EA
:10035000C701B6010E94A403882777FD8095982FD6
:100360000E94D7039B01AC01C701B6010E94D302D2
:1003700020E030E040E251E40E948B040E94A4039C
:10038000862F805D0E940501CF91FF90EF90DF9056
:10039000CF900895E0ECF0E080818823ECF7809125
:1003A000C6000895CF93DF93EC018881882331F054
:1003B00021960E94050189918823D9F7DF91CF9179
:1003C00008950F931F93CF93DF9380E091E00E94F5
:1003D000D2010E94BD00082F192FCDE6D0E0F80110
:1003E000619171918F01882777FD8095982F0E94E8
:1003F000D7030E940D018AE00E9405018DE00E9452
:100400000501219761F7DF91CF911F910F91089519
:100410008FEF8AB95F9A17B888B9789483E390E030
:100420000E94FA000E9456000E947A0090935001A8
:1004300080934F010E94530008950E940802C0E07B
:10044000D0E002E111E00F2EF3E2EF2EF1E0FF2EFB
:10045000F02D0F2EF1E9CF2EF2E0DF2EF02DAA24A1
:10046000BB2480914E01882321F4C8010E94D2014F
:100470000BC0C7010E94D201809192020E94050127
:10048000D6018C910E9405018FEF94E3ACE081507E
:100490009040A040E1F700C000000E9469009093E6
:1004A0009202809391022196A2E0C835DA0719F4EE
:1004B0000E949700E5013099D4CF0E94E101D1CF8D
:1004C0001F920F920FB60F9211242F933F934F93C9
:1004D0005F936F937F938F939F93AF93BF93EF93AC
:1004E000FF93CF93DF93CDB7DEB72797DEBFCDBFA6
:1004F000DE011196ECE2F1E087E001900D9281506F
:10050000E1F7E6ECF0E08081308180914C01909140
:100510004D01FE01E80FF91F2181321749F40196C0
:1005200090934D0180934C018730910531F00CC0C0
:1005300010924D0110924C0107C089E291E00E9497
:10054000D20181E080934E012796DEBFCDBFDF91BF
:10055000CF91FF91EF91BF91AF919F918F917F913B
:100560006F915F914F913F912F910F900FBE0F9020
:100570001F90189520914A0130914B01F901EE0F1F
:10058000FF1FE55DFD4F918380832F5F3F4F3093C9
:100590004B0120934A012233310521F410924B0183
:1005A00010924A0108955058BB27AA270ED075C152
:1005B00066D130F06BD120F031F49F3F11F41EF47E
:1005C0005BC10EF4E095E7FB51C1E92F77D180F3D1
:1005D000BA17620773078407950718F071F49EF540
:1005E0008FC10EF4E0950B2EBA2FA02D0B01B9018F
:1005F00090010C01CA01A0011124FF27591B99F099
:10060000593F50F4503E68F11A16F040A22F232FA4
:10061000342F4427585FF3CF469537952795A795F4
:10062000F0405395C9F77EF41F16BA0B620B730B9B
:10063000840BBAF09150A1F0FF0FBB1F661F771F0C
:10064000881FC2F70EC0BA0F621F731F841F48F4C1
:10065000879577956795B795F7959E3F08F0B3CF47
:100660009395880F08F09927EE0F97958795089531
:10067000D9D008F481E008950CD00FC107D140F023
:10068000FED030F021F45F3F19F0F0C0511139C1B4
:10069000F3C014D198F39923C9F35523B1F3951BF3
:1006A000550BBB27AA2762177307840738F09F5F93
:1006B0005F4F220F331F441FAA1FA9F333D00E2E02
:1006C0003AF0E0E830D091505040E695001CCAF76F
:1006D00029D0FE2F27D0660F771F881FBB1F261734
:1006E00037074807AB07B0E809F0BB0B802DBF0107
:1006F000FF2793585F4F2AF09E3F510568F0B6C020
:1007000000C15F3FECF3983EDCF3869577956795E3
:10071000B795F7959F5FC9F7880F911D96958795B7
:1007200097F90895E1E0660F771F881FBB1F6217D6
:1007300073078407BA0720F0621B730B840BBA0B94
:10074000EE1F88F7E095089504D06894B111D9C0E0
:100750000895BCD088F09F5790F0B92F9927B751D2
:10076000A0F0D1F0660F771F881F991F1AF0BA9575
:10077000C9F712C0B13081F0C3D0B1E00895C0C054
:10078000672F782F8827B85F39F0B93FCCF386956B
:1007900077956795B395D9F73EF4909580957095C8
:1007A00061957F4F8F4F9F4F0895E89409C097FB45
:1007B0003EF490958095709561957F4F8F4F9F4F38
:1007C0009923A9F0F92F96E9BB279395F69587957C
:1007D00077956795B795F111F8CFFAF4BB0F11F43F
:1007E00060FF1BC06F5F7F4F8F4F9F4F16C08823E6
:1007F00011F096E911C0772321F09EE8872F762F1C
:1008000005C0662371F096E8862F70E060E02AF05C
:100810009A95660F771F881FDAF7880F9695879548
:1008200097F90895990F0008550FAA0BE0E8FEEF1D
:1008300016161706E807F907C0F012161306E407A4
:10084000F50798F0621B730B840B950B39F40A269D
:1008500061F0232B242B252B21F408950A2609F47B
:10086000A140A6958FEF811D811D089597F99F677F
:1008700080E870E060E008959FEF80EC0895002428
:100880000A941616170618060906089500240A94F5
:1008900012161306140605060895092E0394000C7B
:1008A00011F4882352F0BB0F40F4BF2B11F460FF0A
:1008B00004C06F5F7F4F8F4F9F4F089557FD905833
:1008C000440F551F59F05F3F71F04795880F97FB14
:1008D000991F61F09F3F79F08795089512161306CE
:1008E0001406551FF2CF4695F1DF08C016161706FD
:1008F0001806991FF1CF8695710561050894089532
:10090000E894BB2766277727CB0197F908958ADFFC
:1009100008F48FEF08950BD0C0CFB1DF28F0B6DF19
:1009200018F0952309F0A2CFA7CF1124EACFC6DF94
:10093000A0F3959FD1F3950F50E0551F629FF001F2
:10094000729FBB27F00DB11D639FAA27F00DB11D4B
:10095000AA1F649F6627B00DA11D661F829F2227D4
:10096000B00DA11D621F739FB00DA11D621F839F5B
:10097000A00D611D221F749F3327A00D611D231F31
:10098000849F600D211D822F762F6A2F11249F577F
:1009900050408AF0E1F088234AF0EE0FFF1FBB1FA2
:1009A000661F771F881F91505040A9F79E3F510541
:1009B00070F05CCFA6CF5F3FECF3983EDCF38695FA
:1009C00077956795B795F795E7959F5FC1F7FE2BEC
:1009D000880F911D9695879597F90895A8E1B0E045
:1009E00042E050E00C94FB040E940905272F0C9470
:1009F0000A05DC01CB01FC01F999FECF06C0F2BD6E
:100A0000E1BDF89A319600B40D9241505040B8F7CC
:100A10000895262FF999FECF1FBA92BD81BD20BD42
:100A20000FB6F894FA9AF99A0FBE01960895F894C1
:020A3000FFCFF6
:100A3200537061726164652074656D70733A200A47
:100A42000D00415444303030313935304136424561
:100A5200460D005355504552004A4100434F4E4EF9
:100A6200454354004E75766172616E64652074650B
:0A0A72006D706572617475723A00D0
:00000001FF
