:100000000C9434000C9451000C9451000C94510049
:100010000C9451000C9451000C9451000C9451001C
:100020000C9451000C9451000C9451000C9451000C
:100030000C9451000C9451000C9451000C945100FC
:100040000C9451000C9451000C94C1010C9451007B
:100050000C9451000C9451000C9451000C945100DC
:100060000C9451000C94510011241FBECFEFD8E026
:10007000DEBFCDBF11E0A0E0B1E0E0EEFAE002C0EB
:1000800005900D92AA33B107D9F712E0AAE3B1E0C7
:1000900001C01D92AC3DB107E1F70E947D010C94B7
:1000A0006E050C9400005F9A8FE295E70197F1F7D7
:1000B00000C000005F988FE295E70197F1F700C05C
:1000C00000005F9A089584E384B92A9A81E58CBD83
:1000D00008950DB407FEFDCF08958EBD0E946900FE
:1000E000089581E00E946D008EB50895CF932A98FF
:1000F0000E947100C82F0E9471002A9A3C2F20E0B4
:10010000887FA901480F511DCA01CF910895CF934F
:10011000DF93C8ECD0E0CE010E94450520E8803096
:10012000920711F4CE0107C0229681E0C43AD807A5
:1001300091F788EC90E0DF91CF9108959C01CB017D
:10014000B9010E944B0508950F931F93CF93DF933E
:100150008C01C0913F01D0914001229681E0C43AC8
:10016000D80710F0C8ECD0E08C2F9D2F60E070E82D
:100170000E944B0580913F0190914001B8010E947F
:100180004B05C0933F01D0934001DF91CF911F9168
:100190000F910895CF92DF92EF92FF920F931F93EA
:1001A000CF93DF93E0903F01F090400188ECE81698
:1001B000F10419F0E701229702C0C2EAD1E08C2FC6
:1001C0009D2FEC16FD06C1F003E411E00F2EF4EABA
:1001D000CF2EF1E0DF2EF02D0E944505F80181932E
:1001E00091938F01C93CD10508F4E60122978C2F29
:1001F0009D2FEC16FD0681F783E491E0DF91CF910E
:100200001F910F91FF90EF90DF90CF900895909302
:10021000C5008093C40088E98093C1008EE080937C
:10022000C2000895E0ECF0E0908195FFFDCF80934F
:10023000C6000895E0ECF0E080818823ECF780911F
:10024000C6000895CF93DF93EC018881882331F0B5
:1002500021960E94120189918823D9F7DF91CF91CD
:100260000895CF92DF92EF92FF920F931F93CF9357
:10027000DF930E94CA00082F192FC0E0D0E00F2E94
:10028000F0E0CF2EF1E0DF2EF02DC6010E9422011A
:1002900021968D2F0E9412018C2F0E94120178014D
:1002A000F801819191918F01892F0E941201F7012C
:1002B00080810E941201CD36D10539F7DF91CF91AF
:1002C0001F910F91FF90EF90DF90CF900895CF9303
:1002D000CFEFCAB90E94530017B8C8B9789483E326
:1002E00090E00E9407010E9463000E9487009093A3
:1002F000400180933F01CF9108950E946701AA2495
:10030000BB2403E812E00F2EF0E0EF2EF1E0FF2E09
:10031000F02D0F2EF6E0CF2EF1E0DF2EF02DE501CF
:1003200080913E01882321F4C6010E94220111C060
:10033000C7010E94220180E00E94120180E00E9419
:100340001201809184020E941201D8018C910E94B6
:1003500012018FEF91EEA4E081509040A040E1F7B0
:1003600000C000000E947600909384028093830274
:100370002196CE31D105A1F60E94A4000E94310140
:10038000CECF1F920F920FB60F9211242F933F934F
:100390004F935F936F937F938F939F93AF93BF938D
:1003A000EF93FF9380913A0190913B018035910545
:1003B00021F410923B0110923A0180913A01909100
:1003C0003B012091C600FC01EB57FD4F2083DF016C
:1003D00019972C912093D502DF0118972C91209327
:1003E000D602DF0117972C912093D702DF011697D1
:1003F0002C912093D802DF0115972C912093D902DC
:10040000DF0114972C912093DA02339720812093F7
:10041000DB02019690933B0180933A0187E191E0E2
:1004200065ED72E047E050E00E943705282F392F34
:100430002115310539F481E080933E0110923B0192
:1004400010923A018FE191E065ED72E043E050E0F7
:100450000E943705282F392F2115310531F41092CC
:100460003E0110923B0110923A01FF91EF91BF9132
:10047000AF919F918F917F916F915F914F913F913C
:100480002F910F900FBE0F901F9018952091410152
:1004900030914201F901EE0FFF1FE35EFD4F9183A2
:1004A00080832F5F3F4F30934201209341012233DD
:1004B000310521F410924201109241010895CF922A
:1004C000DF92EF92FF92CF9320E030E040E05CE3D8
:1004D0000E94D404C62ED72EE82EF92E462F572F71
:1004E000682F792FCB01BA0120E030E0A9010E94EA
:1004F000810388233CF48DE20E941201F7FAF09404
:10050000F7F8F094C701B60120E030E048EC52E47F
:100510000E94D004882354F1C701B60120E030E0E6
:1005200048EC52E40E9485030E94F203C62F862FF6
:10053000805D0E9412012C2F30E084E690E0289F1D
:10054000B001299F700D389F700D1124882777FD09
:100550008095982F0E9420049B01AC01C701B60131
:100560000E941C03C62ED72EE82EF92EC701B60115
:1005700020E030E040E251E40E94D004882354F1AE
:10058000C701B60120E030E040E251E40E9485035B
:100590000E94F203C62F862F805D0E9412018C2FCD
:1005A00090E0880F991FBC01660F771F660F771FB9
:1005B000680F791F882777FD8095982F0E94200467
:1005C0009B01AC01C701B6010E941C03C62ED72EA9
:1005D000E82EF92EC701B60120E030E040E452E4F5
:1005E0000E941D030E94F203862F0E9412018EE2D8
:1005F0000E941201C701B6010E94ED03882777FD12
:100600008095982F0E9420049B01AC01C701B60180
:100610000E941C0320E030E040E251E40E94D40438
:100620000E94ED03862F805D0E941201CF91FF9002
:10063000EF90DF90CF9008955058BB27AA270ED097
:1006400075C166D130F06BD120F031F49F3F11F4C9
:100650001EF45BC10EF4E095E7FB51C1E92F77D1A1
:1006600080F3BA17620773078407950718F071F4CF
:100670009EF58FC10EF4E0950B2EBA2FA02D0B0125
:10068000B90190010C01CA01A0011124FF27591BD7
:1006900099F0593F50F4503E68F11A16F040A22FDD
:1006A000232F342F4427585FF3CF4695379527954E
:1006B000A795F0405395C9F77EF41F16BA0B620B4D
:1006C000730B840BBAF09150A1F0FF0FBB1F661F94
:1006D000771F881FC2F70EC0BA0F621F731F841FD7
:1006E00048F4879577956795B795F7959E3F08F0FD
:1006F000B3CF9395880F08F09927EE0F97958795BC
:100700000895D9D008F481E008950CD00FC107D125
:1007100040F0FED030F021F45F3F19F0F0C05111ED
:1007200039C1F3C014D198F39923C9F35523B1F318
:10073000951B550BBB27AA2762177307840738F050
:100740009F5F5F4F220F331F441FAA1FA9F333D0AF
:100750000E2E3AF0E0E830D091505040E695001C63
:10076000CAF729D0FE2F27D0660F771F881FBB1F1F
:10077000261737074807AB07B0E809F0BB0B802DF9
:10078000BF01FF2793585F4F2AF09E3F510568F045
:10079000B6C000C15F3FECF3983EDCF386957795D9
:1007A0006795B795F7959F5FC9F7880F911D969547
:1007B000879597F90895E1E0660F771F881FBB1FA3
:1007C000621773078407BA0720F0621B730B840B50
:1007D000BA0BEE1F88F7E095089504D06894B11124
:1007E000D9C00895BCD088F09F5790F0B92F9927B1
:1007F000B751A0F0D1F0660F771F881F991F1AF02C
:10080000BA95C9F712C0B13081F0C3D0B1E00895F4
:10081000C0C0672F782F8827B85F39F0B93FCCF375
:10082000869577956795B395D9F73EF49095809521
:10083000709561957F4F8F4F9F4F0895E89409C041
:1008400097FB3EF490958095709561957F4F8F4F03
:100850009F4F9923A9F0F92F96E9BB279395F69519
:10086000879577956795B795F111F8CFFAF4BB0F97
:1008700011F460FF1BC06F5F7F4F8F4F9F4F16C0FB
:10088000882311F096E911C0772321F09EE8872F85
:10089000762F05C0662371F096E8862F70E060E041
:1008A0002AF09A95660F771F881FDAF7880F9695BA
:1008B000879597F90895990F0008550FAA0BE0E85E
:1008C000FEEF16161706E807F907C0F01216130612
:1008D000E407F50798F0621B730B840B950B39F452
:1008E0000A2661F0232B242B252B21F408950A26B8
:1008F00009F4A140A6958FEF811D811D089597F9F8
:100900009F6780E870E060E008959FEF80EC0895B5
:1009100000240A94161617061806090608950024DE
:100920000A9412161306140605060895092E039458
:10093000000C11F4882352F0BB0F40F4BF2B11F4CC
:1009400060FF04C06F5F7F4F8F4F9F4F089557FD2B
:100950009058440F551F59F05F3F71F04795880F2D
:1009600097FB991F61F09F3F79F0879508951216C4
:1009700013061406551FF2CF4695F1DF08C0161670
:1009800017061806991FF1CF869571056105089421
:100990000895E894BB2766277727CB0197F9089538
:1009A0008ADF08F48FEF08950BD0C0CFB1DF28F0B5
:1009B000B6DF18F0952309F0A2CFA7CF1124EACF14
:1009C000C6DFA0F3959FD1F3950F50E0551F629FAE
:1009D000F001729FBB27F00DB11D639FAA27F00D98
:1009E000B11DAA1F649F6627B00DA11D661F829FBF
:1009F0002227B00DA11D621F739FB00DA11D621FA4
:100A0000839FA00D611D221F749F3327A00D611DC0
:100A1000231F849F600D211D822F762F6A2F1124A2
:100A20009F5750408AF0E1F088234AF0EE0FFF1FF5
:100A3000BB1F661F771F881F91505040A9F79E3F2C
:100A4000510570F05CCFA6CF5F3FECF3983EDCF32E
:100A5000869577956795B795F795E7959F5FC1F769
:100A6000FE2B880F911D9695879597F90895FB01A8
:100A7000DC014150504030F08D910190801919F403
:100A80000020B9F7881B990B0895A8E1B0E042E077
:100A900050E00C9452050E946005272F0C946105CC
:100AA000DC01CB01FC01F999FECF06C0F2BDE1BD2E
:100AB000F89A319600B40D9241505040B8F708951D
:100AC000262FF999FECF1FBA92BD81BD20BD0FB66A
:100AD000F894FA9AF99A0FBE01960895F894FFCF08
:100AE000535550455200415444303030313935303F
:100AF00041364245460D00434F4E4E454354004457
:100B00004953004E75766172616E64652074656D3F
:0A0B1000706572617475723A00009E
:00000001FF
