:100000000C9434000C9451000C9451000C94510049
:100010000C9451000C9451000C9451000C9451001C
:100020000C9451000C9451000C9451000C9451000C
:100030000C9451000C9461000C9451000C945100EC
:100040000C9451000C9451000C94EC020C9451004F
:100050000C9451000C9451000C9451000C945100DC
:100060000C9451000C94510011241FBECFEFD8E026
:10007000DEBFCDBF14E0A0E0B1E0E2E4F8E102C0F1
:1000800005900D92A231B107D9F726E0A2E1B4E0C4
:1000900001C01D92AC31B207E1F70E9400080C9438
:1000A0001F0C0C9400003C9A449AE1E8F0E0808137
:1000B00081608083EFE6F0E08081816080837894C6
:1000C00008951F920F920FB60F9211248F939F9352
:1000D00080ED9CEF909385008093840080910101D6
:1000E00081110DC080911704843049F178F481307A
:1000F00061F1C0F0823009F44BC0833091F19F91DF
:100100008F910F900FBE0F901F901895873019F1A7
:1001100070F5853009F442C0863089F78091180463
:1001200085FD11C04498809117048F5F8093170458
:100130009F918F910F900FBE0F901F9018958091F7
:10014000180483FFEFCF449AEECF8091180480FF0C
:10015000E9CF449AE8CF8091180486FFE3CF449A10
:10016000E2CF8091180482FFDDCF449ADCCF883043
:1001700049F0893021F6449A1092170481E0809367
:100180000101BDCF8091180487FFCCCF449ACBCF1B
:100190008091180481FFC6CF449AC5CF809118047E
:1001A00084FFC0CF449ABFCF5D985E9A5C9885B9B2
:1001B0005F985F9A5D9A08955D985E9A5C9A85B99A
:1001C0005F985F9A5D9A08951F93CF93DF931F9274
:1001D000CDB7DEB7182F892F69830E94D400812FF5
:1001E0000E94D4006981862F0F90DF91CF911F91DB
:1001F0000C94D400FF920F931F93CF93DF93F82EAC
:1002000060E070E080E090E00E94E40000EF10E029
:10021000C0E4D1E08F2D0E94DC002197D9F7015076
:100220001109B1F7DF91CF911F910F91FF900895C0
:100230002F923F924F925F927F928F929F92AF92B6
:10024000BF92CF92DF92EF92FF920F931F93CF93C3
:10025000DF93962E742E852E482E512CE9015801DD
:10026000A20EB31E7501C12CD12CC2010C2C02C0F0
:10027000959587950A94E2F780FD24C01016110623
:10028000A4F4BE01872D982D0E94E400212C312C6E
:100290008FEF0E94DC008FEF281A380A20163106F3
:1002A000B9F72196CE15DF0561F78FEFC81AD80A86
:1002B000E00EF11EE50188E0C816D104D9F0A00EC9
:1002C000B11ED3CF1016110684F7BE01872D982DCD
:1002D0000E94E400212C312C892D0E94DC008FEF3C
:1002E000281A380A20163106B9F72196CE15DF05EF
:1002F00061F7DBCFDF91CF911F910F91FF90EF90CE
:10030000DF90CF90BF90AF909F908F907F905F9045
:100310004F903F902F9008955F926F927F928F92AF
:100320009F92AF92BF92CF92DF92EF92FF920F9384
:100330001F93CF93DF93562E4A0159013801843E13
:1003400009F450C0843C09F44DC0853E71F0853CF1
:1003500061F0863F09F449C0863D09F446C0803209
:1003600008F443C0805290E002C080E690E06C0147
:10037000CC0CDD1CCC0CDD1CC80ED91E8DE192E02E
:10038000C80ED91E7401C0E0D0E083019501A70119
:10039000652DF60181916F010E9418012196E60CEE
:1003A000F71CC530D10589F7A301440F551F440F31
:1003B000551F460D571D480D591D9501652D80E0AF
:1003C0000E941801DF91CF911F910F91FF90EF9044
:1003D000DF90CF90BF90AF909F908F907F906F9065
:1003E0005F9008958FE590E0C2CF81E690E0BFCFA7
:1003F0002F923F924F925F926F927F928F929F9235
:10040000AF92BF92CF92DF92EF92FF920F931F9322
:10041000CF93DF9300D000D01F92CDB7DEB7FC01A1
:1004200069833A016901480180818823F1F19801CB
:10043000220F331F220F331F220F331F3B832A83C8
:100440002801440C551C400E511E440C551C2AEF2B
:1004500020031001219F300C11245F015FEFA51ACA
:10046000B50AE12CF12C40E050E0D201A40FB51FF9
:10047000BD83AC839D01260D371D203431402CF007
:100480003701EA81FB81CE0EDF1E460D571D840128
:10049000960169810E948C01D5018D915D01E20C6C
:1004A000F31C4C815D818111E0CF0F900F900F9074
:1004B0000F900F90DF91CF911F910F91FF90EF90D0
:1004C000DF90CF90BF90AF909F908F907F906F9074
:1004D0005F904F903F902F9008950F931F9301E0EE
:1004E00010E00E94F8011F910F910895DF92EF92A2
:1004F000FF920F931F93CF93DF93F82EE62ED72E04
:100500008A011416150674F4C0E0D0E06E2D7D2D1E
:10051000CE010E94E4008F2D0E94DC002196C017BE
:10052000D107A1F7DF91CF911F910F91FF90EF902D
:10053000DF9008957F928F929F92AF92BF92CF9259
:10054000DF92EF92FF920F931F93CF93DF93782E5A
:100550006B018A01141615068CF5C0E0D0E07AE034
:10056000E72EF12CCE01B7010E94C00B882777FD42
:100570008095982F0E94A90A4B015C01BE01882733
:1005800077FD8095982F0E94A90A20E030E040E294
:1005900051E40E940E0A9B01AC01C501B4010E9406
:1005A0000A0A811107C0B601CE010E94E400872D1E
:1005B0000E94DC002196C017D107A1F6DF91CF91F0
:1005C0001F910F91FF90EF90DF90CF90BF90AF9071
:1005D0009F908F907F9008951F920F920FB60F9269
:1005E0001124CF92DF92FF920F931F932F933F938B
:1005F0004F935F936F937F938F939F93AF93BF932B
:10060000CF93DF93EF93FF9380911504909116049D
:100610008F34910509F4BAC0BC016F5F7F4FAC0104
:10062000485051099C0127503109EC012697DC0103
:1006300015976C01E4E0CE1AD108F090C6008C0149
:10064000075E1B4FF801F082709316046093150447
:10065000CA01875E9B4FFC01808180930201C90122
:10066000875E9B4FFC01808180930301C75EDB4F57
:10067000888180930401A75EBB4F8C918093050114
:10068000F601E75EFB4FC081C093060145E050E0F4
:1006900062E071E088E091E00E94E80B009791F53C
:1006A000F8013397C081DD27C7FDD095DC2FCC271B
:1006B000F80132978081C80FD11DF8013197608110
:1006C000C936D105DCF1109216041092150481E0B0
:1006D00080931404FF91EF91DF91CF91BF91AF917F
:1006E0009F918F917F916F915F914F913F912F914A
:1006F0001F910F91FF90DF90CF900F900FBE0F9042
:100700001F90189544E050E062E071E08EE091E0C7
:100710000E94E80B0097F1F6C0931606F801339794
:10072000808180931706F8013297808180931806A4
:100730001092190681E080930001CCCF772767FDE6
:100740007095762F66278E01000F111F000F111F65
:1007500007591B4F6F0D711D882777FD8095982FC6
:100760000E94A90A20E030E040E05CE30E945D0BBB
:10077000F801608371838283938310921604109230
:100780001504C836D10509F0A5CFA1CF10921604E3
:1007900010921504BCEFCB2EDD24DA94ABEFBFEF43
:1007A000CAEFDFEF29EF3FEF48EF5FEF61E070E066
:1007B00080E090E042CF0F931F9304E010E020E030
:1007C00030E040E050E060E083E191E00E94F80119
:1007D0005A982FEF8AED9AE1215080409040E1F73E
:1007E00000C000005A9A2FEF84E39CE02150804023
:1007F0009040E1F700C000001F910F91089517B8D5
:100800008FEF88B984B98AB985E090E00E94F60B31
:1008100090931B0680931A0689E090E00E94F60BE5
:10082000909313048093120478941092C50083E38C
:100830008093C40088E98093C1008EE08093C20059
:100840000E9453000E94DB038FEF0E94FA00EEE447
:10085000F1E091E48091C00085FFFCCF9093C60049
:1008600091919111F7CF2FE789EA93E021508040D1
:100870009040E1F700C00000E3E5F1E091E48091F1
:10088000C00085FFFCCF9093C60091919111F7CFE6
:100890000895BF92CF92DF92EF92FF920F931F9332
:1008A000CF93DF9320E030E040E251E40E945D0B03
:1008B0000E94760AEB0177FD50C0E12CF12C05E097
:1008C00010E020E137E284E6C82ED12C9CE2B92E5C
:1008D00021C0F701E35FF94FCE01B9010E94C00BBF
:1008E000605D60834FEFE41AF40AEC016901B9011D
:1008F000882777FD8095982F0E94A90A20E030E094
:1009000040E251E40E940E0A0E94760A9B010150C7
:10091000110989F0C217D3071CF42C153D053CF7CB
:1009200021303105B1F6F701E35FF94FB0824FEFA7
:10093000E41AF40ACECFF701E35FF94F80E2808337
:1009400011828DE096E0DF91CF911F910F91FF9082
:10095000EF90DF90CF90BF9008958DE280930D06C9
:10096000D195C195D109EE24E394F12CA8CFFF9243
:100970000F931F93CF93DF938091C1008F77809364
:10098000C10022E330E040EF50E060E081E691E01A
:100990000E946D02E0E7F1E09AE080910101882376
:1009A000E1F3909318041092010191919111F5CF08
:1009B00009E614E0C0E0D0E03BE3F32EEAE7F1E023
:1009C0009AE4809101018823E1F390931804109236
:1009D000010191919111F5CFBE01882777FD809596
:1009E000982F0E94A90A0E944904FC012081222319
:1009F00061F03196809101018823E1F3209318047E
:100A00001092010121912111F5CF809101018823DC
:100A1000E1F3F092180410920101F80161917191D3
:100A2000819191918F010E944904FC012081222330
:100A300069F0FC013196809101018823E1F3209354
:100A400018041092010121912111F5CFECE9F1E098
:100A50009AE0809101018823E1F3909318041092A9
:100A6000010191919111F5CF2196C936D10509F077
:100A7000A5CFE8E9F1E093E7809101018823E1F354
:100A8000909318041092010191919111F5CF22E3F6
:100A900030E040EF50E060E08FE391E00E946D02B3
:100AA0008091C10080688093C100DF91CF911F9138
:100AB0000F91FF9008952F923F924F925F926F9205
:100AC0007F928F929F92AF92BF92CF92DF92EF92DE
:100AD000FF920F931F93CF93DF93CDB7DEB7AB9702
:100AE0000FB6F894DEBF0FBECDBF8D8379A768A780
:100AF00029013A01882777FD8095982F0E94A90A3D
:100B0000A30192010E94A6090E94760A69837A8352
:100B10008B839C8329803A80D801AC901196BC903D
:100B200011971296CC9012971396DC90F701EE0F66
:100B3000FF1FFA87E987AF0168A579A580E00E94C9
:100B4000760249855A8569817A8180E00E94760221
:100B50001E141F040CF017C21A8309838701000FAB
:100B6000111F000F111F29813A81020F131F7501F8
:100B700046013B8F2A8F4B865C866D867E865E2C77
:100B80004F2CAA8DBB8D6C9011967C90119712966C
:100B9000EC9012971396FC9013971496BB8FAA8F24
:100BA0002A2D3B2D4C2D5D2D662D772D8E2D9F2DC5
:100BB0000E94590B181614F453016701B201272F34
:100BC000342D482D592D662D772D8E2D9F2D0E9469
:100BD0000A0A87FF03C0562C472C4701EA8DFB8D7C
:100BE000E017F10771F6E52CF42C4B845C846D84DE
:100BF0007E8420E030E040E050E46A2D7B2D8C2D97
:100C00009D2D0E94A6096B877F87888B998B20E09A
:100C100030E040E050E46E2D7F2D882D992D0E940C
:100C2000A5096A8B7B8B8C8B9D8B6E8F7F8F88A3A6
:100C300099A3762F6B89982F8D89272F362F492FCF
:100C4000582FBB85AF85188909896B2F7A2F812F83
:100C5000902F0E94A5096E8B7F8B888F998F6AA336
:100C60007BA38CA39DA320E030E040E450E4092F57
:100C7000902F0E940E0A0E94760A7FA36EA300E0C6
:100C800010E0C101AA2797FDA095BA2F8A8F9B8FEC
:100C9000AC8FBD8FA981BA81BBA7AAA720E030E0A5
:100CA00040E85FE3C301B2010E94590B18162CF50E
:100CB000EE24E394F12CCAA4DBA4B1016E197F09E0
:100CC000C8010E94E4008FEF0E94DC008FEF0E94B9
:100CD000DC00FFEFEF1AFF0AB701882777FD809548
:100CE000982F0E94A90A9B01AC01C301B2010E9486
:100CF000590B181614F3DBA6CAA6EAA5FBA5819129
:100D00009191A191B191FBA7EAA789839A83AB83C3
:100D1000BC836A8D7B8D8C8D9D8D0E94A90A6B0191
:100D20007C017E896F89988D898D272F362F492FD9
:100D3000582FC301B2010E940E0A4B015C017A894F
:100D40006B899C898D89272F362F492F582F6981D0
:100D50007A818B819C810E94A5099B01AC01C50110
:100D6000B4010E945D0B9B01AC01C701B6010E945A
:100D7000A5090E947B0AC8010E94E4008D810E949F
:100D8000DC008D810E94DC000E5F1F4F29853A85B3
:100D90000217130709F082CF5B854F8538892989AF
:100DA000652F742F832F922F0E94490428A539A5FF
:100DB0002F5F3F4F49855A856D810E946D025E8D80
:100DC0004F8D38A129A1652F742F832F922F0E9458
:100DD000490491012850310949855A856D810E9445
:100DE0006D025E8D4F8D38A129A1652F742F832F41
:100DF000922F0E94760A5B01882777FD8095982FB5
:100E00000E94A90A6B017C019B01AC01BB85AF85E7
:100E1000E88919896B2F7A2F8E2F912F0E94590BF9
:100E200018160CF097C0AEA1BFA1BD01882777FDB1
:100E30008095982F0E94A90A0EA11FA101501109A7
:100E40003A822982BB8EAA8E4D825E826F8278861C
:100E50002B013C0118010EA11FA12DC0E981FA81CF
:100E6000E61BF70BBF0149855A8580E00E949A0274
:100E70008A8D9B8D820D931D9B8F8A8FAA8DBB8D32
:100E80001196BB8FAA8FBD01882777FD8095982F7B
:100E90000E94A90A6B017C019B01AC01BB85AF8557
:100EA000E889B9886B2F7A2F8E2F9B2D0E94590BC2
:100EB00018160CF04FC08A8D9B8DB8010E94C00B94
:100EC000882777FD8095982F0E94A90A4B015C0125
:100ED000A3019201C701B6010E940E0A9B01AC0159
:100EE000C501B4010E940A0A8111C8CF7E8D6F8DA1
:100EF00098A189A1272F362F492F582FC701B60156
:100F00000E94A5096B017C017AA16BA19CA18DA116
:100F1000272F362F492F582F6D817E818F819885FD
:100F20000E940E0A9B01AC01C701B6010E945D0B35
:100F30000E94760AEA8DFB8DEF2B09F08FCF298175
:100F40003A81261B370BB90149855A8580E00E94FA
:100F500076028ECFAB960FB6F894DEBF0FBECDBF34
:100F6000DF91CF911F910F91FF90EF90DF90CF9085
:100F7000BF90AF909F908F907F906F905F904F90B9
:100F80003F902F90089520E030E040E050E46A2D3B
:100F90007B2D8C2D9D2D0E94A6096B877F87888BCA
:100FA000998B20E030E040E050E46A2D7B2D8C2DC1
:100FB0009D2D0E94A5096E8F7F8F88A399A3762F00
:100FC0006F8D982F89A1272F362F492F582FBB853A
:100FD000AF85188909896B2F7A2F812F902F0E9456
:100FE000A5096AA37BA38CA39DA320E030E040E485
:100FF00050E40E940E0A0E94760A7FA36EA3CCCE14
:101000000E94FF03C8E024E630E040E050E060E0EA
:1010100089E194E00E946D0286B190E08095909500
:1010200080FF35C002E010E020E030E040E050E01A
:1010300060EE87ED91E00E94F80160911A067091D0
:101040001B06882777FD8095982F0E94A90A0E9489
:10105000490407E010E02EE130E040E050E060EEAF
:101060000E94F80186B190E08095909582FFF5C0CE
:1010700060911A0670911B066F5F7F4F70931B067D
:1010800060931A0685E090E00E94FC0BBCCF86B10D
:1010900090E08095909581FF35C002E010E020E05F
:1010A00030E040E050E060EE83EF91E00E94F80114
:1010B0006091120470911304882777FD8095982F12
:1010C0000E94A90A0E94490407E010E02EE130E0E6
:1010D00040E050E063E00E94F80186B190E0809526
:1010E000909582FF15C160911204709113046F5F97
:1010F0007F4F709313046093120489E090E00E9484
:10110000FC0B81CF86B190E08095909585FF03C060
:101110000E94B70478CFC0906904D0906A04E09030
:101120006B04F0906C0460911A0670911B0688277E
:1011300077FD8095982F0E94A90A9B01AC01C701F9
:10114000B6010E94590B18160CF4F7C060911204F6
:1011500070911304882777FD8095982F0E94A90A23
:101160009B01AC01C701B6010E940A0A87FF8AC031
:1011700007E010E02EE130E040E050E063E08EE96F
:1011800091E00E94F8018BB18C278BB980911404F7
:10119000882309F438CF79E6E72EF12C09E614E02C
:1011A00020E030E040ED52E467E870E080EE0E941D
:1011B0005B0510920001EEEBF1E09BE28091C00034
:1011C00085FFFCCF9093C60091919111F7CF2FE747
:1011D00082E392E0215080409040E1F700C000009F
:1011E000E1E1F2E091E48091C00085FFFCCF9093B3
:1011F000C60091919111F7CF809100018823E1F30E
:10120000E3ECF1E091E48091C00085FFFCCF909386
:10121000C60091919111F7CFEEE4F1E091E4809155
:10122000C00085FFFCCF9093C60091919111F7CF3C
:1012300028EC30E04EE051E060E08FEC91E00E945D
:101240006D0221ED30E04EE051E060E086E196E095
:101250000E946D0210921404D6CE86B190E0809563
:10126000909583FFD0CE60911A0670911B06615055
:10127000710970931B0660931A0685E090E00E9446
:10128000FC0BC1CE02E010E020E030E040E050E096
:1012900060EE84EA91E00E94F80160916904709127
:1012A0006A0480916B0490916C040E94490407E0E9
:1012B00010E02EE130E040E050E060E00E94F801F4
:1012C0005B9860911A0670911B06882777FD8095C0
:1012D000982F0E94A90A0E94490424E130E048E1C5
:1012E00051E060EE0E946D0260911204709113044F
:1012F000882777FD8095982F0E94A90A0E944904AB
:101300002EE130E048E151E063E00E946D023ECF03
:1013100086B190E08095909583FF75CE6091120420
:101320007091130461507109709313046093120457
:1013300089E090E00E94FC0B66CE07E010E02EE111
:1013400030E040E050E060EE1ACF5058BB27AA27AB
:101350000ED075C166D130F06BD120F031F49F3FD3
:1013600011F41EF45BC10EF4E095E7FB51C1E92FC7
:1013700077D180F3BA17620773078407950718F0CF
:1013800071F49EF58FC10EF4E0950B2EBA2FA02DAF
:101390000B01B90190010C01CA01A0011124FF2722
:1013A000591B99F0593F50F4503E68F11A16F0401D
:1013B000A22F232F342F4427585FF3CF469537951C
:1013C0002795A795F0405395C9F77EF41F16BA0BE1
:1013D000620B730B840BBAF09150A1F0FF0FBB1F8F
:1013E000661F771F881FC2F70EC0BA0F621F731FD8
:1013F000841F48F4879577956795B795F7959E3F35
:1014000008F0B3CF9395880F08F09927EE0F9795C2
:1014100087950895D9D008F481E008950CD00FC1C4
:1014200007D140F0FED030F021F45F3F19F0F0C05A
:10143000511139C1F3C014D198F39923C9F355233D
:10144000B1F3951B550BBB27AA27621773078407B7
:1014500038F09F5F5F4F220F331F441FAA1FA9F36D
:1014600033D00E2E3AF0E0E830D091505040E6955F
:10147000001CCAF729D0FE2F27D0660F771F881FC0
:10148000BB1F261737074807AB07B0E809F0BB0BAF
:10149000802DBF01FF2793585F4F2AF09E3F5105D3
:1014A00068F0B6C000C15F3FECF3983EDCF3869570
:1014B00077956795B795F7959F5FC9F7880F911D49
:1014C0009695879597F90895E1E0660F771F881F35
:1014D000BB1F621773078407BA0720F0621B730BE8
:1014E000840BBA0BEE1F88F7E095089504D068943A
:1014F000B111D9C00895BCD088F09F5790F0B92F92
:101500009927B751A0F0D1F0660F771F881F991F58
:101510001AF0BA95C9F712C0B13081F0C3D0B1E06A
:101520000895C0C0672F782F8827B85F39F0B93F7A
:10153000CCF3869577956795B395D9F73EF490955A
:101540008095709561957F4F8F4F9F4F0895E894D8
:1015500009C097FB3EF490958095709561957F4FFB
:101560008F4F9F4F9923A9F0F92F96E9BB279395A9
:10157000F695879577956795B795F111F8CFFAF4B9
:10158000BB0F11F460FF1BC06F5F7F4F8F4F9F4FEA
:1015900016C0882311F096E911C0772321F09EE848
:1015A000872F762F05C0662371F096E8862F70E0AE
:1015B00060E02AF09A95660F771F881FDAF7880F88
:1015C0009695879597F90895990F0008550FAA0BDE
:1015D000E0E8FEEF16161706E807F907C0F0121646
:1015E0001306E407F50798F0621B730B840B950B49
:1015F00039F40A2661F0232B242B252B21F408959E
:101600000A2609F4A140A6958FEF811D811D08953A
:1016100097F99F6780E870E060E008959FEF80ECA5
:10162000089500240A941616170618060906089548
:1016300000240A9412161306140605060895092EAE
:101640000394000C11F4882352F0BB0F40F4BF2B1D
:1016500011F460FF04C06F5F7F4F8F4F9F4F08955D
:1016600057FD9058440F551F59F05F3F71F0479553
:10167000880F97FB991F61F09F3F79F08795089538
:10168000121613061406551FF2CF4695F1DF08C057
:10169000161617061806991FF1CF86957105610574
:1016A00008940895E894BB2766277727CB0197F91C
:1016B00008958ADF08F48FEF08950BD0C0CFB1DF13
:1016C00028F0B6DF18F0952309F0A2CFA7CF112498
:1016D000EACFC6DFA0F3959FD1F3950F50E0551FD9
:1016E000629FF001729FBB27F00DB11D639FAA2777
:1016F000F00DB11DAA1F649F6627B00DA11D661FC6
:10170000829F2227B00DA11D621F739FB00DA11DE6
:10171000621F839FA00D611D221F749F3327A00DA0
:10172000611D231F849F600D211D822F762F6A2F3C
:1017300011249F5750408AF0E1F088234AF0EE0FC1
:10174000FF1FBB1F661F771F881F91505040A9F7CE
:101750009E3F510570F05CCFA6CF5F3FECF3983E03
:10176000DCF3869577956795B795F795E7959F5F35
:10177000C1F7FE2B880F911D9695879597F90895CF
:1017800097FB072E16F4009407D077FD09D00E942E
:10179000D40B07FC05D03EF4909581959F4F08959A
:1017A000709561957F4F0895AA1BBB1B51E107C03F
:1017B000AA1FBB1FA617B70710F0A61BB70B881FE1
:1017C000991F5A95A9F780959095BC01CD01089570
:1017D000FB01DC014150504030F08D9101908019A7
:1017E00019F40020B9F7881B990B0895A8E1B0E01F
:1017F00042E050E00C94030C0E94110C272F0C9433
:10180000120CDC01CB01FC01F999FECF06C0F2BD40
:10181000E1BDF89A319600B40D9241505040B8F7AE
:101820000895262FF999FECF1FBA92BD81BD20BD24
:101830000FB6F894FA9AF99A0FBE01960895F894A3
:02184000FFCFD8
:1018420001015300000000005355504552000D0A9B
:10185200302C00C57465727374E46C6C657220423E
:10186200746D6F64756C20202020202020202020A1
:101872002020202020202020202020202020202066
:101882002020202020202020202020200041544FF2
:101892000D0041542B62747363616E2C332C300D36
:1018A20000536B69636B617220646174612E000A7C
:1018B2000D73746172740A0D004A696D6D79207638
:1018C200696C6C206861206D65726120757466793F
:1018D2006C6C6E6164210073746F700A0D004C6150
:1018E200726D3F004E75766172616E64652074653B
:1018F2006D7065726174757220E4723A002B2B2B45
:101902000D0041542B4254525353492C300D005375
:1019120069676E616C3A0048F667206C61726D6EA1
:101922006976E53A20202020202020202020202037
:101932002020004CE567206C61726D6E6976E53A95
:1019420020202020202020202020202020202000B5
:1019520041542B4254525353492C310D0000000084
:10196200000000005F00000003000300143E143E6C
:1019720014242A7F2A1243330866613649552250BD
:101982000005030000001C2241000041221C00143B
:10199200083E081408083E080800503000000808F5
:1019A200080808006060000020100804023E514947
:1019B200453E04027F0000426151494622414949A5
:1019C200361814127F1027454545393E4949493298
:1019D20001017109073649494936264949493E00FC
:1019E2003636000000563600000814224100141456
:1019F200141414004122140802015109063E4159EF
:101A0200555E7E0909097E7F494949363E41414179
:101A1200227F4141413E7F494949417F09090901EC
:101A22003E4141493A7F0808087F00417F4100302A
:101A32004040403F7F081422417F404040407F02A7
:101A42000C027F7F0204087F3E4141413E7F09092B
:101A520009061E2121215E7F090909762649494985
:101A62003201017F01013F4040403F1F2040201FC3
:101A72007F2010207F41221C224107087008076145
:101A820051494543007F4100000204081020000034
:101A9200417F000402010204404040404000010234
:101AA200040020545454787F444444383844444415
:101AB20044384444447F385454541804047E050581
:101AC200085454543C7F0804047800447D400020AC
:101AD20040443D007F1028440000417F40007C04C8
:101AE2007804787C0804047838444444387C14141C
:101AF2001408081414147C007C0804044854545438
:101B02002004043F44443C4040207C1C2040201CD4
:101B12003C4030403C44281028440C5050503C4437
:101B220064544C44000836414100007F00004141AA
:101B320036080002010204022055545578205455FB
:101B42005478384544453800000000000000000089
:021B5200000091
:00000001FF
