S01300004772616669736B206C63642E73726563F7
S11300000C9434000C9451000C9451000C94510045
S11300100C9451000C9451000C9451000C94510018
S11300200C9451000C9451000C9451000C94510008
S11300300C9451000C9479000C9451000C945100D0
S11300400C9451000C9451000C94DE030C94510058
S11300500C9451000C9451000C9451000C945100D8
S11300600C9451000C94510011241FBECFEFD8E022
S1130070DEBFCDBF13E0A0E0B1E0E4E8F9E102C0E7
S113008005900D92A43CB107D9F715E0A4ECB3E0B8
S113009001C01D92AC3CB107E1F70E94DD080C944D
S11300A0C00C0C9400003C9A449AE1E8F0E0808192
S11300B081608083EFE6F0E08081816080837894C2
S11300C008959091BC039923E1F38093CB0310929C
S11300D0BC030895CF93DF93EC018881882331F02A
S11300E021960E94610089918823D9F7DF91CF91ED
S11300F008951F920F920FB60F9211248F939F931E
S113010080ED9CEF90938500809384008091BC03E4
S1130110882309F099C08091CA03843009F44DC042
S1130120853050F4813011F18130C8F0823059F1BA
S1130130833009F089C034C0873009F465C0883041
S113014038F4853009F446C0863009F07DC04FC0CC
S1130150883009F466C0893009F076C06FC04498CD
S11301608091CA038F5F8093CA036EC08091CB03D2
S113017080FF02C0449A01C044988091CA038F5FF3
S11301808093CA0361C08091CB0381FF02C0449A6B
S113019001C044988091CA038F5F8093CA0354C0FE
S11301A08091CB0382FF02C0449A01C0449880919D
S11301B0CA038F5F8093CA0347C08091CB0383FF38
S11301C002C0449A01C044988091CA038F5F80930F
S11301D0CA033AC08091CB0384FF02C0449A01C091
S11301E044988091CA038F5F8093CA032DC0809185
S11301F0CB0385FF02C0449A01C044988091CA038E
S11302008F5F8093CA0320C08091CB0386FF02C016
S1130210449A01C044988091CA038F5F8093CA03B3
S113022013C08091CB03882314F4449A01C04498EA
S11302308091CA038F5F8093CA0306C0449A1092C8
S1130240CA0381E08093BC039F918F910F900FBEEE
S11302500F901F9018955D9808955D9A08955F9882
S113026008955F9A08950E942F010E943101089514
S11302705E9808955E9A08955C980895CF93C82F68
S11302800E942B010E943A010E943C01C5B90E94C0
S113029033010E942D01CF910895CF93DF93D82F7E
S11302A0892FC62F0E943E018D2F0E943E018C2F64
S11302B00E943E01DF91CF9108955C9A0895CF93F7
S11302C0C82F0E942B010E943A010E945D01C5B90A
S11302D00E9433010E942D01CF910895CF92DF92A5
S11302E0EF92FF921F93CF93DF93182F80E090E05B
S11302F060E070E00E944D010F2EF0EFEF2EFF241E
S1130300F02D0F2EF0E4CF2EF1E0DF2EF02D0BC0F8
S1130310812F0E945F012197D9F70894E108F10821
S1130320E114F10411F0E601F3CFDF91CF911F91B5
S1130330FF90EF90DF90CF9008952F923F924F92CD
S11303405F926F927F929F92AF92BF92CF92DF9211
S1130350EF92FF920F931F93CF93DF9300D000D0BF
S113036000D0CDB7DEB7F62E3A011A830983A22E48
S1130370B32E44245524282F30E03C832B8322249D
S11303803324E22C932C8B819C81042C02C0959500
S113039087950A94E2F780FD04C010161106FCF05C
S11303A038C010161106ACF56101B6016A0D7B1D4B
S11303B0C3010E944D01ED829E828F2D0E945F0138
S11303C08D819E8101969E838D8380179107A9F765
S11303D00894C11CD11CC016D10639F71AC061019A
S11303E0B5016C0D7D1DC3010E944D01ED829E82FD
S11303F08FEF0E945F01ED81FE813196FE83ED83D4
S1130400E017F107A9F70894C11CD11CC016D10646
S113041039F70894411C511C29813A81A20EB31E5C
S113042038E04316510409F0AECF26960FB6F8947F
S1130430DEBF0FBECDBFDF91CF911F910F91FF9013
S1130440EF90DF90CF90BF90AF909F907F906F9090
S11304505F904F903F902F9008954F925F927F92BC
S11304608F929F92AF92BF92CF92DF92EF92FF92C0
S11304700F931F93CF93DF93762E2901B02EA12ED5
S1130480843E79F0843C79F0853E79F0853C79F0BE
S1130490863F79F0863D79F0803278F0282F20521B
S11304A00DC02FE50BC02FE509C020E607C020E6EC
S11304B005C021E603C021E601C021E630E0C90100
S11304C0880F991F880F991F820F931FEC01C8533F
S11304D0DE4F8B2C9A2CC42ED52E0F2EFDECEF2E36
S11304E0F1E0FF2EF02DE80EF91E8991672DA6018B
S11304F092010B2D1A2D0E949D01C80CD91CCE15FA
S1130500DF0599F7DF91CF911F910F91FF90EF9045
S1130510DF90CF90BF90AF909F908F907F905F902F
S11305204F9008950F931F9301E010E00E942D0255
S11305301F910F9108952F923F925F926F927F9235
S11305408F929F92AF92BF92CF92DF92EF92FF92DF
S11305500F931F93CF93DF9300D000D000D0CDB77B
S1130560DEB7FC01562E6A0149013801208122239D
S113057009F444C0C801880F991F880F991F880F78
S1130580991FAC01400F511F5C834B83C801880F36
S1130590991F800F911F880F991F9A8389832224A2
S11305A03324281A390A5F010894A11CB11CEE24D3
S11305B0FF2440E050E002C04D815E8189819A8130
S11305C0840F951F9E838D838C0D9D1DA1E0803427
S11305D09A072CF06701EB81FC818E0E9F1E4C0D57
S11305E05D1D822F652D940183010E942D02D5018A
S11305F02D915D01E20CF31C2223F1F626960FB631
S1130600F894DEBF0FBECDBFDF91CF911F910F9144
S1130610FF90EF90DF90CF90BF90AF909F908F901E
S11306207F906F905F903F902F9008950F931F934A
S113063001E010E00E949B021F910F910895CF9258
S1130640DF92FF920F931F93CF93DF93F82E6B01EA
S1130650EA011C161D0674F400E010E0C801B6019E
S11306600E944D018F2D0E945F010F5F1F4F0C17D9
S11306701D07A1F7DF91CF911F910F91FF90DF909C
S1130680CF9008958F929F92AF92BF92CF92DF92B4
S1130690EF92FF920F931F93CF93DF93EC018B01A3
S11306A00E94620C882777FD8095982F0E944B0B3F
S11306B04B015C01BE01882777FD8095982F0E942D
S11306C04B0B6B017C01B801882777FD8095982F2F
S11306D00E944B0B9B01AC01C701B6010E94B00AFA
S11306E09B01AC01C1E0C501B4010E94AC0A8111B7
S11306F0C0E08C2FDF91CF911F910F91FF90EF906D
S1130700DF90CF90BF90AF909F908F9008956AE054
S113071070E00E9442030895CF92DF92FF920F93FC
S11307201F93CF93DF93F82E6B01EA011C161D066D
S11307309CF400E010E0C8010E948703882339F08C
S1130740C801B6010E944D018F2D0E945F010F5F09
S11307501F4F0C171D0779F7DF91CF911F910F9150
S1130760FF90DF90CF9008959093C5008093C400CC
S113077088E98093C1008EE08093C2000895E0EC84
S1130780F0E0908195FFFDCF8093C6000895E0ECE2
S1130790F0E080818823ECF78091C6000895CF9320
S11307A0DF93EC018881882331F021960E94BF03F6
S11307B089918823D9F7DF91CF9108951F920F92E1
S11307C00FB60F921124EF92FF921F932F933F9332
S11307D04F935F936F937F938F939F93AF93BF9345
S11307E0CF93DF93EF93FF938091C8039091C90354
S11307F08F34910521F41092C9031092C803C0915B
S1130800C803D091C9031091C600FE01E453FC4F04
S11308101083CE0101969093C9038093C803DF012E
S113082018978C918093BD03DF0117978C91809367
S1130830BE03DF0116978C918093BF03DF011597E8
S11308408C918093C003349780818093C10380E0AE
S113085091E06DEB73E045E050E00E94890C282F95
S1130860392F2115310509F049C0CE0184539C4F1D
S1130870FC013397C081DD27C7FDD095DC2FCC2741
S1130880FC0132972081C20FD11D0197FC016081C8
S1130890C936D1053CF5772767FD7095762F662715
S11308A0CE01880F991F880F991F0F2EFCE1EF2EA0
S11308B0F4E0FF2EF02DE80EF91E610F711D88275C
S11308C077FD8095982F0E944B0B20E030E040E0AC
S11308D05CE30E94FF0BDC01CB01F7018083918371
S11308E0A283B38381E08093C7031092C90310925B
S11308F0C803C836D10514F08093C603FF91EF9165
S1130900DF91CF91BF91AF919F918F917F916F9123
S11309105F914F913F912F911F91FF90EF900F9016
S11309200FBE0F901F901895A091C803B091C903F2
S113093016161706E4F4A61BB70BA41BB50BFD0192
S1130940E453FC4F3081FC012081321791F4A3530E
S1130950BC4F319680E090E004C03D912191321764
S113096051F4019686179707C1F781E0089581E055
S1130970089580E0089580E0089546B1282F30E07E
S113098050E0409550952423352381E0211531050D
S113099009F480E0089566B1482F50E02091C00525
S11309A030E070E026273727CA018223932300977B
S11309B029F086B18093C00581E0089586B18093C3
S11309C0C00580E008955B9A08955B9808959BB1F3
S11309D088E089278BB908955A988FE19EE401979E
S11309E0F1F700C000005A9A089517B88FEF88B93C
S11309F084B98AB90E94EC0485E090E00E94970CC7
S1130A009093CB058093CA0587E090E00E94970CF1
S1130A109093C5038093C403789483E390E00E9489
S1130A20B4030E9453008FEF0E946E0186E091E0B0
S1130A300E94CF0308959F92AF92BF92CF92DF920C
S1130A40EF92FF920F931F93CF93DF9320E030E058
S1130A5040E251E40E94FF0B0E94180BDC01CB0121
S1130A607C01992354F48DE28093C105F094E194C0
S1130A70F108F394C1E0D0E002C0C0E0D0E005E0AA
S1130A8010E020E137E20F2EF4E6AF2EBB24F02D68
S1130A900F2EF1ECCF2EF5E0DF2EF02D0F2EFCE221
S1130AA09F2EF02DE216F3061CF42A153B05ACF438
S1130AB02130310529F4F601EC0FFD1F90822196B7
S1130AC0F601EC0FFD1FC701B9010E94620C605DC5
S1130AD060832196E82EF92E5901B901882777FD04
S1130AE08095982F0E944B0B20E030E040E251E4C7
S1130AF00E94B00A462F572F682F792FCB01BA01D5
S1130B000E94180B9B010150104061F681EC95E0A6
S1130B10C80FD91F20E228831982DF91CF911F913A
S1130B200F91FF90EF90DF90CF90BF90AF909F9088
S1130B300895CF92DF92EF92FF920F931F93CF937A
S1130B40DF93E1ECF0E080818F77808385E191E0B1
S1130B5060E040EF50E022E330E00E94160383E2BD
S1130B6091E00E946A000CE114E0C0E0D0E00F2E96
S1130B70FDE2EF2EF1E0FF2EF02D0F2EF8E5CF2E43
S1130B80F1E0DF2EF02DC7010E946A00BE01882724
S1130B9077FD8095982F0E944B0B0E941B050E94A5
S1130BA06A008BE30E946100F80161917191819167
S1130BB091918F010E941B050E946A00C6010E9448
S1130BC06A002196C936D105F1F68BE591E00E94C1
S1130BD06A0082E691E060E040EF50E022E330E01A
S1130BE00E941603E1ECF0E0808180688083DF914D
S1130BF0CF911F910F91FF90EF90DF90CF900895C8
S1130C002F923F924F925F926F927F928F929F9218
S1130C10AF92BF92CF92DF92EF92FF920F931F9306
S1130C20CF93DF93CDB7DEB7A7970FB6F894DEBFA7
S1130C300FBECDBF8D837FA36EA349015A01FA82F3
S1130C40E9829B01B901882777FD8095982F0E943E
S1130C504B0BA50194010E94480A0E94180B6B01DA
S1130C607C011B01D801BC91B987F801F181FD8792
S1130C70D8011296BC91BE87F801F381FF872981C0
S1130C80220F29A380E06EA17FA1422F50E00E9491
S1130C901F0380E0B60149A150E00E941F0389812F
S1130CA09A81181619060CF017C218870F839985B4
S1130CB0988BED844E845F84CC24DD243A8A298A7F
S1130CC036011A8F098F8B8A9C8AAD8ABE8A992E27
S1130CD0AE2CB42CD52C292E3E2CA98DBA8DFC908B
S1130CE01196EC9011971296CC90129713968C90C3
S1130CF013971496BA8FA98F8F2D9E2DAC2DB82DD6
S1130D00BC01CD01092D1A2D2B2D3D2DA9019801D2
S1130D100E94FB0B181624F49F2CAE2CBC2CD82C50
S1130D208F2D9E2DAC2DB82DBC01CD01022D132D80
S1130D30242D352DA90198010E94AC0A882324F49E
S1130D402F2C3E2C4C2C582C0894611C711CE981CE
S1130D50FA816E167F0609F0C0CF9986AD86BE86ED
S1130D608B889C88AD88BE88DF86288AE32C2988F6
S1130D703A8829853D854E85822F932FA42FBD2D3A
S1130D80BC01CD0120E030E040E050E40E94480A7C
S1130D90D62E172F082FF92E6AA37BA38CA39DA30D
S1130DA02889822F9E2DA42DB52DBC01CD0120E0D4
S1130DB030E040E050E40E94470A562F472F382F76
S1130DC0292F6D877E878F8B988F8D2D912FA02F44
S1130DD0BF2DBC01CD01B22F052F142F232F3B2F84
S1130DE0A90198010E94470A6F87788B898B9B8B96
S1130DF0372F482F592F862F932FA42FB52FBC019F
S1130E00CD0120E030E040E450E40E94B00A0E94AA
S1130E10180BDC01CB019A8F898F29813A81220F2B
S1130E20331F3C8F2B8F00E010E0C101AA2797FDF0
S1130E30A095BA2F8D8F9E8FAF8FB8A376C0EE2466
S1130E40FF24E394B1016E197F09C8010E944D018A
S1130E508FEF0E945F018FEF0E945F010894E11CF5
S1130E60F11CB701882777FD8095982F0E944B0BC2
S1130E70A50194010E94AC0A882324F3AF81B885AC
S1130E804D905D906D907D90B887AF836D8D7E8D14
S1130E908F8D98A10E944B0B69837A838B839C83EB
S1130EA0C501B4012F85388949895B89C22ED32EA7
S1130EB0E42EF52EA70196010E94B00A69877A876D
S1130EC08B879C87C301B2012D853E854F89588D40
S1130ED0C22ED32EE42EF52EA70196010E94470AB6
S1130EE09B01AC0169857A858B859C850E94FF0BEB
S1130EF09B01AC0169817A818B819C810E94470AA4
S1130F000E941D0BAB01BC01C801BA010E944D0136
S1130F108D810E945F018D810E945F010E5F1F4FD2
S1130F20EB8DFC8D0E171F0761F0C501B40120E0A5
S1130F3030E040E85FE30E94FB0B18160CF47FCF0F
S1130F409DCF2AA13BA14CA15DA1822F932FA42F59
S1130F50B52FBC01CD010E941B052EA13FA12F5F1F
S1130F603F4F6D8149A150E00E9416032D853E85B7
S1130F704F89588D822F932FA42FB52FBC01CD01FB
S1130F800E941B059101285030406D8149A150E019
S1130F900E9416033D852E854F89588D832F922FED
S1130FA0A42FB52FBC01CD010E94180BDC01CB018D
S1130FB03C01B301882777FD8095982F0E944B0B45
S1130FC06B017C014AA15BA1ECA1FDA1042F152FAB
S1130FD02E2F3F2FA90198010E94AC0A88230CF000
S1130FE0D3C0498C5A8C08944108510838862F8202
S1130FF07A826982602E712E2CA03F885E824D8297
S11310004DA0588C89819A81698D7A8D0E94420302
S1131010882309F446C0C701B601FD85EE850F2F6C
S11310201E2F232D352DA90198010E94470A6B011B
S11310307C01C501B401FF85E88959894B890F2FCB
S11310401E2F252F342FA90198010E94B00A9B015D
S1131050AC01C701B6010E94FF0B0E94180B298145
S11310603A812115310559F08F819885861B970B9C
S1131070BC0180E049A150E00E948C030AC0AF810A
S1131080B885A61BB70BBD0180E049A150E00E94C2
S11310901F03E981FA812D813E81E20FF31FFA8358
S11310A0E98389819A8101969A838983DC01BD0150
S11310B0882777FD8095982F0E944B0B6B017C014C
S11310C0062D172D222D342DA90198010E94AC0A5A
S11310D088230CF497CF58C059854D853E852F85BC
S11310E0852F942FA32FB22FBC01CD0120E030E037
S11310F040E050E40E94480AE62E172F082FF92EEC
S11311006AA37BA38CA39DA329853D854E855F851A
S1131110822F932FA42FB52FBC01CD0120E030E006
S113112040E050E40E94470A262F372F482F592FBA
S11311306D877E878F8B988F8E2D912FA02FBF2D3B
S1131140BC01CD01022F132F242F352FA9019801A3
S11311500E94470A6F87788B898B9B8B372F482F88
S1131160592F862F932FA42FB52FBC01CD0120E03A
S113117030E040E450E40E94B00A0E94180BDC0105
S1131180CB019A8F898FDDCEA7960FB6F894DEBF78
S11311900FBECDBFDF91CF911F910F91FF90EF90C4
S11311A0DF90CF90BF90AF909F908F907F906F9083
S11311B05F904F903F902F9008950E94F504CCECDF
S11311C0D3E00F2EF0E78F2EF1E09F2EF02D0F2E9F
S11311D0FCE1AF2EF4E0BF2EF02D0F2EFFEA2F2EF0
S11311E0F1E03F2EF02D0F2EF9EA6F2EF1E07F2E65
S11311F0F02D0F2EFCE84F2EF1E05F2EF02DCE01E6
S113120060E040E050E024E630E00E94160381E014
S11312100E94BD04882309F448C0C40160EE40E084
S113122050E020E030E002E010E00E949B02609178
S1131230CA057091CB05882777FD8095982F0E9469
S11312404B0B0E941B0560EE40E050E02EE130E0C5
S113125007E010E00E949B0284E00E94BD04882302
S113126079F06091CA057091CB056F5F7F4F7093E1
S1131270CB056093CA0585E090E00E949D0CBFCF2A
S113128088E00E94BD04882309F4B9CF6091CA059F
S11312907091CB05615070407093CB056093CA0583
S11312A085E090E00E949D0CAACF82E00E94BD04DC
S11312B0882309F448C0C20160EE40E050E020E019
S11312C030E002E010E00E949B026091C403709140
S11312D0C503882777FD8095982F0E944B0B0E94A9
S11312E01B0563E040E050E02EE130E007E010E051
S11312F00E949B0284E00E94BD04882379F06091DF
S1131300C4037091C5036F5F7F4F7093C5036093EF
S1131310C40387E090E00E949D0C71CF88E00E9496
S1131320BD04882309F46BCF6091C4037091C50395
S1131330615070407093C5036093C40387E090E0EC
S11313400E949D0C5CCF80E20E94BD04882319F0AA
S11313500E94990554CFF501C080D180E280F380CA
S11313606091CA057091CB05882777FD8095982FE9
S11313700E944B0B9B01AC01C701B6010E94FB0B01
S113138018166CF4C30160EE40E050E02EE130E04A
S113139007E010E00E949B020E94E70461C0609194
S11313A0C4037091C503882777FD8095982F0E9408
S11313B04B0B9B01AC01C701B6010E94AC0A882308
S11313C06CF4C30163E040E050E02EE130E007E05C
S11313D010E00E949B020E94E70442C0C10160EE3B
S11313E040E050E020E030E002E010E00E949B0288
S11313F0F50160817181828193810E941B0560E007
S113140040E050E02EE130E007E010E00E949B0253
S11314100E94E5046091CA057091CB05882777FD89
S11314208095982F0E944B0B0E941B0560EE48E1AB
S113143051E024E130E00E9416036091C4037091EE
S1131440C503882777FD8095982F0E944B0B0E9437
S11314501B0563E048E151E02EE130E00E941603F1
S11314608091C603882309F4CACE80EE67E870E051
S113147020E030E040ED52E485010F2EF9E6EF2E36
S1131480FF24F02D0E9400061092C603B8CE5058D7
S1131490BB27AA270ED075C166D130F06BD120F0DE
S11314A031F49F3F11F41EF45BC10EF4E095E7FBA9
S11314B051C1E92F77D180F3BA1762077307840704
S11314C0950718F071F49EF58FC10EF4E0950B2E7C
S11314D0BA2FA02D0B01B90190010C01CA01A00182
S11314E01124FF27591B99F0593F50F4503E68F1DD
S11314F01A16F040A22F232F342F4427585FF3CF1E
S1131500469537952795A795F0405395C9F77EF4EE
S11315101F16BA0B620B730B840BBAF09150A1F037
S1131520FF0FBB1F661F771F881FC2F70EC0BA0FBD
S1131530621F731F841F48F4879577956795B79545
S1131540F7959E3F08F0B3CF9395880F08F099273D
S1131550EE0F979587950895D9D008F481E0089502
S11315600CD00FC107D140F0FED030F021F45F3F22
S113157019F0F0C0511139C1F3C014D198F3992373
S1131580C9F35523B1F3951B550BBB27AA27621743
S11315907307840738F09F5F5F4F220F331F441F88
S11315A0AA1FA9F333D00E2E3AF0E0E830D09150C0
S11315B05040E695001CCAF729D0FE2F27D0660FAD
S11315C0771F881FBB1F261737074807AB07B0E8EC
S11315D009F0BB0B802DBF01FF2793585F4F2AF002
S11315E09E3F510568F0B6C000C15F3FECF3983EE2
S11315F0DCF3869577956795B795F7959F5FC9F75F
S1131600880F911D9695879597F90895E1E0660FE7
S1131610771F881FBB1F621773078407BA0720F060
S1131620621B730B840BBA0BEE1F88F7E0950895C9
S113163004D06894B111D9C00895BCD088F09F57E4
S113164090F0B92F9927B751A0F0D1F0660F771F0A
S1131650881F991F1AF0BA95C9F712C0B13081F0EA
S1131660C3D0B1E00895C0C0672F782F8827B85F32
S113167039F0B93FCCF3869577956795B395D9F74B
S11316803EF490958095709561957F4F8F4F9F4F55
S11316900895E89409C097FB3EF490958095709561
S11316A061957F4F8F4F9F4F9923A9F0F92F96E9AA
S11316B0BB279395F695879577956795B795F1111F
S11316C0F8CFFAF4BB0F11F460FF1BC06F5F7F4FBC
S11316D08F4F9F4F16C0882311F096E911C07723CE
S11316E021F09EE8872F762F05C0662371F096E8D7
S11316F0862F70E060E02AF09A95660F771F881FA6
S1131700DAF7880F9695879597F90895990F000849
S1131710550FAA0BE0E8FEEF16161706E807F907BF
S1131720C0F012161306E407F50798F0621B730B5A
S1131730840B950B39F40A2661F0232B242B252BDB
S113174021F408950A2609F4A140A6958FEF811D7E
S1131750811D089597F99F6780E870E060E008951F
S11317609FEF80EC089500240A94161617061806B5
S11317700906089500240A94121613061406050691
S11317800895092E0394000C11F4882352F0BB0F22
S113179040F4BF2B11F460FF04C06F5F7F4F8F4F85
S11317A09F4F089557FD9058440F551F59F05F3FC0
S11317B071F04795880F97FB991F61F09F3F79F06F
S11317C087950895121613061406551FF2CF4695F1
S11317D0F1DF08C0161617061806991FF1CF869573
S11317E07105610508940895E894BB276627772757
S11317F0CB0197F908958ADF08F48FEF08950BD091
S1131800C0CFB1DF28F0B6DF18F0952309F0A2CFDE
S1131810A7CF1124EACFC6DFA0F3959FD1F3950F8C
S113182050E0551F629FF001729FBB27F00DB11D60
S1131830639FAA27F00DB11DAA1F649F6627B00DF0
S1131840A11D661F829F2227B00DA11D621F739FD9
S1131850B00DA11D621F839FA00D611D221F749FE7
S11318603327A00D611D231F849F600D211D822F2E
S1131870762F6A2F11249F5750408AF0E1F0882375
S11318804AF0EE0FFF1FBB1F661F771F881F915082
S11318905040A9F79E3F510570F05CCFA6CF5F3F43
S11318A0ECF3983EDCF3869577956795B795F795B5
S11318B0E7959F5FC1F7FE2B880F911D969587953D
S11318C097F9089597FB092E07260AD077FD04D0CF
S11318D00CD006D000201AF4709561957F4F0895BE
S11318E0F6F7909581959F4F0895AA1BBB1B51E174
S11318F007C0AA1FBB1FA617B70710F0A61BB70B7C
S1131900881F991F5A95A9F780959095BC01CD0120
S11319100895FB01DC014150504030F08D9101905D
S1131920801919F40020B9F7881B990B0895A8E1D0
S1131930B0E042E050E00C94A40C0E94B20C272FBB
S11319400C94B30CDC01CB01FC01F999FECF06C069
S1131950F2BDE1BDF89A319600B40D924150504069
S1131960B8F70895262FF999FECF1FBA92BD81BD0D
S113197020BD0FB6F894FA9AF99A0FBE019608950D
S1071980F894FFCF05
S113198453555045520041542B62747363616E2C59
S1131994332C300D00536B69636B61722064617482
S11319A4612E000A0D73746172740A0D004A696D24
S11319B46D792076696C6C206861206D6572612094
S11319C4757466796C6C6E61642120204D79636B47
S11319D465742064617461000A0D0073746F700A85
S11319E40D00202020202020202020202020200042
S11319F448F667206C61726D6E6976E53A202020A2
S1131A042020202020202020202020004CE56720B6
S1131A146C61726D6E6976E53A20202020202020C6
S1131A242020202020202020004C61726D3F004E95
S1131A3475766172616E64652074656D706572613A
S1131A4474757220E4723A00000000000000005F24
S1131A5400000003000300143E143E14242A7F2AC9
S1131A6412433308666136495522500005030000C9
S1131A74001C2241000041221C0014083E081408E2
S1131A84083E0808005030000008080808080060F0
S1131A9460000020100804023E5149453E04027FC0
S1131AA40000426151494622414949361814127FC3
S1131AB41027454545393E49494932010171090711
S1131AC43649494936264949493E0036360000001C
S1131AD4563600000814224100141414141400414E
S1131AE422140802015109063E4159555E7E090932
S1131AF4097E7F494949363E414141227F41414162
S1131B043E7F494949417F090909013E4141493A16
S1131B147F0808087F00417F4100304040403F7FF8
S1131B24081422417F404040407F020C027F7F0220
S1131B3404087F3E4141413E7F090909061E2121D3
S1131B44215E7F09090976264949493201017F0149
S1131B54013F4040403F1F2040201F7F2010207F32
S1131B6441221C224107087008076151494543007A
S1131B747F41000002040810200000417F00040299
S1131B840102044040404040000102040020545437
S1131B9454787F44444438384444444438444444A2
S1131BA47F385454541804047E0505085454543C92
S1131BB47F0804047800447D40002040443D007FB5
S1131BC41028440000417F40007C047804787C0899
S1131BD404047838444444387C1414140808141451
S1131BE4147C007C080404485454542004043F44E2
S1131BF4443C4040207C1C2040201C3C4030403C61
S1131C0444281028440C5050503C4464544C440020
S1131C140836414100007F000041413608000201BA
S1131C2402040220555455782054555478384544B8
S1131C3445380000000000000000000001530000CB
S1071C440000000098
S9030000FC
