:100000000C9434000C9451000C9451000C94510049
:100010000C9451000C9451000C9451000C9451001C
:100020000C9451000C9451000C9451000C9451000C
:100030000C9451000C947B000C9451000C945100D2
:100040000C9451000C9451000C94CE030C9451006C
:100050000C9451000C9451000C9451000C945100DC
:100060000C9451000C94510011241FBECFEFD8E026
:10007000DEBFCDBF14E0A0E0B1E0EEEEFAE102C0D9
:1000800005900D92A232B107D9F716E0A2E2B4E0D2
:1000900001C01D92AC32B107E1F70E945F090C94D8
:1000A000750D0C9400003C9A449AE1E8F0E08081E0
:1000B00081608083EFE6F0E08081816080837894C6
:1000C000089590911B049923E1F3809328041092E2
:1000D0001B040895FC019081992361F03196809171
:1000E0001B048823E1F39093280410921B04919140
:1000F0009923A9F708951F920F920FB60F9211241A
:100100008F939F9380ED9CEF909385008093840064
:1001100080911B04882381F480912704843069F145
:10012000853088F4813079F18130C8F54498809128
:1001300027048F5F809327049F918F910F900FBEAC
:100140000F901F901895873021F1883090F58530F9
:1001500009F447C0863081F78091280485FD11C0DD
:100160004498809127048F5F809327049F918F91FB
:100170000F900FBE0F901F9018958091280483FF59
:10018000EFCF449AEECF8091280480FFE9CF449AC4
:10019000E8CF8091280486FFE3CF449AE2CF8230F3
:1001A000D1F0833049F68091280482FFD9CF449A58
:1001B000D8CF883051F0893009F0BECF449A1092E0
:1001C000270481E080931B04B7CF8091280487FF28
:1001D000C7CF449AC6CF8091280481FFC1CF449AEB
:1001E000C0CF8091280484FFBBCF449ABACF5D98DA
:1001F0005E9A5C9885B95F985F9A5D9A08955D985C
:100200005E9A5C9A85B95F985F9A5D9A08951F938C
:10021000CF93DF930F92CDB7DEB7182F892F698365
:100220000E94F700812F0E94F7006981862F0E94AB
:10023000F7000F90DF91CF911F910895FF920F93D8
:100240001F93CF93DF93F82E80E090E060E070E0A2
:100250000E94070100EF10E0C0E4D1E08F2D0E9462
:10026000FF002197D9F701501040B1F7DF91CF91EE
:100270001F910F91FF9008955F985F9A08955D9880
:1002800008955D9A08955F9808955F9A08955E981D
:1002900008955E9A08955C9808955C9A08954F9227
:1002A0005F926F927F929F92AF92BF92CF92DF92B6
:1002B000EF92FF920F931F93CF93DF93F62EE42ECE
:1002C000952E482E5524590166247724C201062C08
:1002D00002C0959587950A94E2F780FD34C0101608
:1002E0001106C4F4CC24DD24B5016C0D7D1D8E2DCA
:1002F000992D0E940701C0E0D0E08FEF0E94FF001F
:100300002196C017D107C9F70894C11CD11CC0168B
:10031000D10651F70894611C711CA00EB11E88E033
:100320006816710499F6DF91CF911F910F91FF909C
:10033000EF90DF90CF90BF90AF909F907F906F90A5
:100340005F904F9008951016110624F7CC24DD24F9
:10035000B5016C0D7D1D8E2D992D0E940701C0E009
:10036000D0E08F2D0E94FF002196C017D107C9F75A
:100370000894C11CD11CC016D10651F7CBCF4F92A7
:100380005F926F927F929F92AF92BF92CF92DF92D5
:10039000EF92FF920F931F93CF93DF93962E2A0134
:1003A00039016801843E09F453C0843C09F450C00B
:1003B000853E71F0853C61F0863F09F44CC0863D76
:1003C00009F449C0803208F446C0805290E002C06F
:1003D00080E690E05C01AA0CBB1CAA0CBB1CA80E1A
:1003E000B91E87E292E0A80EB91EE201EE24FF24B6
:1003F000F50181915F01692DAE01930186010E9493
:100400004F010894E11CF11CCC0DDD1DF5E0EF1649
:10041000F10471F7A601440F551F440F551F4C0DF1
:100420005D1D440D551D80E0692D93010E944F0113
:10043000DF91CF911F910F91FF90EF90DF90CF90C0
:10044000BF90AF909F907F906F905F904F90089576
:100450008FE590E0BFCF81E690E0BCCF0F931F9374
:1004600001E010E00E94BF011F910F9108953F929B
:100470004F925F926F927F928F929F92AF92BF92B4
:10048000CF92DF92EF92FF920F931F93CF93DF9360
:1004900000D000D000D0CDB7DEB7362E7A014901AA
:1004A0003801FC012081222309F442C0A801440F35
:1004B000551F440F551F440F551F5C834B83280164
:1004C000440C551C400E511E440C551CEE27FF27B2
:1004D000E419F509FA83E9835C010894A11CB11CB5
:1004E000CC24DD2440E050E002C04D815E81C20199
:1004F000840F951F9E838D838E0D9F1DE1E08034B8
:100500009E072CF076018B819C81880E991E4E0DE2
:100510005F1D822F632D940183010E94BF01F501AD
:1005200021915F0149815A81C40ED51E2223E9F62B
:1005300026960FB6F894DEBF0FBECDBFDF91CF91E8
:100540001F910F91FF90EF90DF90CF90BF90AF90F1
:100550009F908F907F906F905F904F903F90089505
:100560000F931F9301E010E00E9437021F910F913B
:100570000895DF92EF92FF920F931F93CF93DF9333
:10058000D82EF62EE72EEA011C161D067CF400E09C
:1005900010E0C8016F2D7E2D0E9407018D2D0E9455
:1005A000FF000F5F1F4F0C171D0799F7DF91CF91C9
:1005B0001F910F91FF90EF90DF9008956F927F92BF
:1005C0009F92AF92BF92CF92DF92EF92FF920F93E2
:1005D0001F93CF93DF93982E3B018A0114161506C3
:1005E0008CF5C0E0D0E0EAE0AE2EB12CCE01B50132
:1005F0000E94170D882777FD8095982F0E94000C88
:100600006B017C01BE01882777FD8095982F0E94A1
:10061000000C20E030E040E251E40E94650B9B01B9
:10062000AC01C701B6010E94610B882339F4CE01E9
:10063000B3010E940701892D0E94FF002196C01777
:10064000D107A1F6DF91CF911F910F91FF90EF900D
:10065000DF90CF90BF90AF909F907F906F90089564
:100660008F929F92AF92BF92CF92DF92EF92FF92C2
:100670000F931F93CF93DF93EC018B010E94170D13
:10068000882777FD8095982F0E94000C4B015C0114
:10069000BE01882777FD8095982F0E94000C6B0182
:1006A0007C01B801882777FD8095982F0E94000C67
:1006B0009B01AC01C701B6010E94650B9B01AC0117
:1006C000C1E0C501B4010E94610B8111C0E08C2F13
:1006D000DF91CF911F910F91FF90EF90DF90CF901E
:1006E000BF90AF909F908F900895CF92DF92EF923E
:1006F000FF92CF93DF93EC016AE070E00E94170D48
:10070000882777FD8095982F0E94000C6B017C0153
:10071000BE01882777FD8095982F0E94000C20E06D
:1007200030E040E251E40E94650B9B01AC01C1E066
:10073000C701B6010E94610B8111C0E08C2FDF91CF
:10074000CF91FF90EF90DF90CF9008959093C500E8
:100750008093C40088E98093C1008EE08093C2003A
:1007600008959091C00095FFFCCF8093C600089536
:100770008091C00087FFFCCF8091C6000895FC01E6
:100780009081992351F031968091C00085FFFCCF74
:100790009093C60091919923B9F708951F920F92F3
:1007A0000FB60F921124CF92DF92FF920F931F93F7
:1007B0002F933F934F935F936F937F938F939F9369
:1007C000AF93BF93CF93DF93EF93FF938091250473
:1007D000909126048F34910509F4BCC09C012F5FD1
:1007E0003F4F08EFC02E0FEFD02EC80ED91EAC0120
:1007F00047505040BC0166507040DC011597EC0139
:100800002497F090C6008C01075D1B4FF801F08221
:100810003093260420932504F601E75DFB4F808189
:1008200080931C04475D5B4FFA01808180931D0417
:10083000675D7B4FFB01808180931E04A75DBB4FEA
:100840008C9180931F04C75DDB4FC881C093200447
:1008500080E091E06CE174E045E050E00E943E0DE4
:10086000009791F5F8013397C081DD27C7FDD0953A
:10087000DC2FCC27F80132978081C80FD11DF801F9
:1008800031976081C936D105DCF1109226041092AF
:10089000250481E080932404FF91EF91DF91CF91B3
:1008A000BF91AF919F918F917F916F915F914F9188
:1008B0003F912F911F910F91FF90DF90CF900F905C
:1008C0000FBE0F901F90189586E091E06CE174E0E8
:1008D00044E050E00E943E0D0097F1F6C0932606DA
:1008E000F8013397808180932706F8013297808141
:1008F000809328061092290681E080932602CCCFAF
:10090000772767FD7095762F66278E01000F111FE0
:10091000000F111F07581B4F6F0D711D882777FDA2
:100920008095982F0E94000C20E030E040E05CE3CE
:100930000E94B40CDC01CB01F80180839183A28377
:10094000B3831092260410922504C836D10509F00D
:10095000A3CF9FCF1092260410922504CCEFDFEF97
:10096000ABEFBFEF6AEF7FEF49EF5FEF18EFC12EFC
:100970001FEFD12E21E030E080E090E042CFA09147
:100980002504B091260416161706D4F4A61BB70B3F
:10099000A41BB50BFD01E75DFB4F3081FC012081FD
:1009A000321791F4A65DBB4F319680E090E004C011
:1009B0003D912191321731F4019686179707C1F7BF
:1009C00081E0089580E0089580E0089596B1282F91
:1009D00030E0892F90E0809590952823392381E09D
:1009E0002115310509F480E008955B9A08955B981C
:1009F00008958BB198E089278BB908950F931F93C1
:100A00008BE091E060E040E050E020E030E004E086
:100A100010E00E9437025A988FEF9AEDAAE18150B8
:100A20009040A040E1F700C000005A9A8FEF94E395
:100A3000ACE081509040A040E1F700C000001F9161
:100A40000F91089517B88FEF88B984B98AB985E0F6
:100A500090E00E944C0D90932B0680932A0689E02B
:100A600090E00E944C0D909323048093220478948C
:100A70001092C50083E38093C40088E98093C1008D
:100A80008EE08093C2000E9453000E94FE048FEF0C
:100A90000E941E01E6E4F1E091E48091C00085FF30
:100AA000FCCF9093C60091919923B9F78FE799EA0B
:100AB000A3E081509040A040E1F700C00000EBE4CB
:100AC000F1E091E48091C00085FFFCCF9093C600D7
:100AD00091919923B9F70895BF92CF92DF92EF9247
:100AE000FF920F931F93CF93DF9320E030E040E21B
:100AF00051E40E94B40C0E94CD0BDC01CB017C01BF
:100B000097FD55C000E010E0C5E0D0E020E137E2FD
:100B100084E6C82ED12C9CE2B92E27C0F801E35EF2
:100B2000F94FC701B9010E94170D605D60830F5F27
:100B30001F4F7C016901B901882777FD8095982FA7
:100B40000E94000C20E030E040E251E40E94650B7E
:100B5000462F572F682F792FCB01BA010E94CD0B5A
:100B6000DC01CB019C01219781F0E216F3061CF415
:100B70002C153D0504F72130310581F6F801E35EBF
:100B8000F94FB0820F5F1F4FC9CFF801E35EF94FF5
:100B900080E2808311828DE196E0DF91CF911F91F9
:100BA0000F91FF90EF90DF90CF90BF9008958DE26E
:100BB00080931D06F094E194F108F39401E010E0B5
:100BC000A3CFFF920F931F93CF93DF938091C10028
:100BD0008F778093C10089E591E060E040EF50E0BD
:100BE00022E330E00E94B002E8E6F1E09AE0809172
:100BF0001B048823E1F39093280410921B04919125
:100C00009923A9F709E714E0C0E0D0E02BE3F22E26
:100C1000E5E7F1E09AE480911B048823E1F39093E7
:100C2000280410921B0491919923A9F7BE018827EB
:100C300077FD8095982F0E94000C0E946C05FC01A6
:100C40009081992361F0319680911B048823E1F310
:100C50009093280410921B0491919923A9F78091F5
:100C60001B048823E1F3F092280410921B04F8017E
:100C700061917191819191918F010E946C05FC01AC
:100C80009081992361F0319680911B048823E1F3D0
:100C90009093280410921B0491919923A9F7E2E7FD
:100CA000F1E09AE080911B048823E1F390932804FB
:100CB00010921B0491919923A9F72196C936D10569
:100CC00009F0A6CFE3E9F1E093E780911B048823C4
:100CD000E1F39093280410921B0491919923A9F7B2
:100CE00089E991E060E040EF50E022E330E00E94CB
:100CF000B0028091C10080688093C100DF91CF91E4
:100D00001F910F91FF9008952F923F924F925F9203
:100D10006F927F928F929F92AF92BF92CF92DF920B
:100D2000EF92FF920F931F93CF93DF93CDB7DEB770
:100D3000E2970FB6F894DEBF0FBECDBF89877AABBE
:100D400069AB49015A01F88AEF869B01B9018827EE
:100D500077FD8095982F0E94000CA50194010E94B8
:100D6000FD0A0E94CD0B2B013C011B01D801EC9028
:100D70001196DC9011971296BC91B983F801F3811A
:100D8000FD832F853889220F331F3A8B298B80E012
:100D900069A97AA9A9010E94B90280E0B201498932
:100DA0005A890E94B9028F859889181619060CF085
:100DB0003AC21C870B872801EB8A1D2DF9800D8113
:100DC000662477243E8A2D8A5CA24BA28F8A988E55
:100DD000A98EBA8E4E2CCD2C5E2C2F2C302EABA192
:100DE000BCA10C911196FC9011971296EC90129761
:100DF0001396DC9013971496BCA3ABA3802F9F2D62
:100E0000AE2DBD2DBC01CD01242D3C2D49815D8130
:100E100049015A01A50194010E94B00C181624F44E
:100E2000402ECF2CE982DD82802F9F2DAE2DBD2D4F
:100E3000BC01CD01252D312F49015101A50194019E
:100E40000E94610B87FF04C0502E1F2D2E2C3D2CBD
:100E50000894611C711CEF85F8896E167F0609F0F5
:100E6000BECF8F88988CA98CBA8C5B8AF22C032D0C
:100E70002D883E88242D3C2D49815D81C901DA01F0
:100E8000BC01CD0120E030E040E050E40E94FD0ACA
:100E90006F877D8B8FA798AB252D312F4F2D502F2E
:100EA000C901DA01BC01CD0120E030E040E050E4AE
:100EB0000E94FC0A6F8B7B8F8C8F9D8F6FA378A70E
:100EC00089A79AA72F853D894FA558A9C901DA019D
:100ED000BC01CD014F895B8DEC8DFD8D8A019F0199
:100EE000A90198010E94FC0A6E8F7F8F88A399A3A5
:100EF0006BA77CA78DA79EA7AC01CB01DA01BC0133
:100F0000CD0120E030E040E450E40E94650B0E94F7
:100F1000CD0BDC01CB019C8B8B8BF1E0FAA3C501DF
:100F2000B40120E030E040E85FE30E94B00C181606
:100F30000CF077C100E010E0C101AA2797FDA09551
:100F4000BA2F8BA39CA3ADA3BEA3FAA1FF23F9F0F4
:100F500081E090E07C01B1016E197F09C8010E9417
:100F600007018FEF0E94FF008FEF0E94FF0008949F
:100F7000E11CF11CB701882777FD8095982F0E940E
:100F8000000CA50194010E94610B87FDE4CFAB85A5
:100F9000BC854D905D906D907D90BC87AB876BA1BB
:100FA0007CA18DA19EA10E94000C69837A838B8312
:100FB0009C83C501B4012E8D3F8D48A159A16901C3
:100FC0007A01A70196010E94650B6D837E838F8352
:100FD0009887C301B2012F893B8D4C8D5D8D6901CE
:100FE0007A01A70196010E94FC0A9B01AC016D8168
:100FF0007E818F8198850E94B40C9B01AC01698130
:101000007A818B819C810E94FC0A0E94D20BAB01E9
:10101000BC01C801BA010E94070189850E94FF0036
:1010200089850E94FF000E5F1F4FE989FA890E171C
:101030001F0709F08ACF2F853D894FA558A9C901FF
:10104000DA01BC01CD010E946C0529A93AA92F5FE4
:101050003F4F698549895A890E94B0022FA138A55E
:1010600049A55AA5C901DA01BC01CD010E946C0550
:10107000910128503040698549895A890E94B002FF
:101080002FA138A549A55AA5C901DA01BC01CD0196
:101090000E94CD0BDC01CB019E838D839C01B901A5
:1010A000882777FD8095982F0E94000C6B017C01AA
:1010B0004F855D89EFA5F8A98A019F01A9019801D3
:1010C0000E94610B87FF94C0AB89BC89BD01882752
:1010D00077FD8095982F0E94000C2B013C01EB8935
:1010E000FC893197FA87E9873A8229828B869C8628
:1010F000AD86BE863FA428A825C00E94DE028D8151
:101100009E81A985BA858A0F9B1F9E838D83ED8161
:10111000FE813196FE83ED83BF01882777FD8095A0
:10112000982F0E94000C6B017C01FF85ED89A101C5
:101130000F2F1E2F252F322DA90198010E94610B20
:1011400087FF56C08D819E816B897C890E94170D17
:10115000882777FD8095982F0E94000C4B015C0139
:10116000C701B601A30192010E94650B9B01AC016E
:10117000C501B4010E94610B882349F6C701B6017D
:10118000FFA1E8A559A54AA50F2F1E2F252F342F03
:10119000A90198010E94FC0A6B017C016B857C858A
:1011A0008D859E85FBA5ECA55DA54EA50F2F1E2F59
:1011B000252F342FA90198010E94650B9B01AC01DA
:1011C000C701B6010E94B40C0E94CD0BDC01CB011B
:1011D0002D813E8169817A81681B790B80E0498984
:1011E0005A892115310509F088CF0E94B90287CFAD
:1011F000E2960FB6F894DEBF0FBECDBFDF91CF9160
:101200001F910F91FF90EF90DF90CF90BF90AF9024
:101210009F908F907F906F905F904F903F902F9016
:1012200008951AA287CE39812D818E2D9D2DA32F51
:10123000B22FBC01CD0120E030E040E050E40E943C
:10124000FD0A6F877D8B8FA798AB2E2D3D2D498191
:101250005D81C901DA01BC01CD0120E030E040E050
:1012600050E40E94FC0A6FA378A789A79AA72F854C
:101270003D894FA558A9C901DA01BC01CD014FA193
:1012800058A5E9A5FAA58A019F01A90198010E9424
:10129000FC0A6BA77CA78DA79EA7AC01CB01DA0146
:1012A000BC01CD0120E030E040E450E40E94650B39
:1012B0000E94CD0BDC01CB019C8B8B8BBCCE0E94A2
:1012C0002205C8E086B190E08095909580FF3AC0F5
:1012D00087EA91E060EE40E050E020E030E002E09C
:1012E00010E00E94370260912A0670912B06882731
:1012F00077FD8095982F0E94000C0E946C0560EE8F
:1013000040E050E02EE130E007E010E00E943702BC
:1013100086B190E08095909582FFFAC060912A0690
:1013200070912B066F5F7F4F70932B0660932A0698
:1013300085E090E00E94520D86B190E080959095F6
:1013400080FDC6CF86B190E08095909581FF35C035
:1013500083EC91E060EE40E050E020E030E002E01D
:1013600010E00E94370260912204709123048827C4
:1013700077FD8095982F0E94000C0E946C0563E019
:1013800040E050E02EE130E007E010E00E9437023C
:1013900086B190E08095909582FF15C160912204FE
:1013A000709123046F5F7F4F709323046093220436
:1013B00089E090E00E94520D85CF86B190E0809543
:1013C000909585FF03C00E94E1057CCFC090790411
:1013D000D0907A04E0907B04F0907C0460912A061F
:1013E00070912B06882777FD8095982F0E94000C1E
:1013F0009B01AC01C701B6010E94B00C18160CF499
:10140000F7C06091220470912304882777FD8095AE
:10141000982F0E94000C9B01AC01C701B6010E94ED
:10142000610B87FF8AC080EE91E063E040E050E00E
:101430002EE130E007E010E00E9437028BB18C27EC
:101440008BB980912404882309F43CCF80EE67E8AF
:1014500070E020E030E040ED52E409E714E0A9E656
:10146000EA2EF12C0E94840610922602E0E0F2E0BF
:101470009BE28091C00085FFFCCF9093C6009191C4
:101480009923B9F78FEF91EEA4E081509040A040EE
:10149000E1F700C00000E5E0F2E091E48091C000D7
:1014A00085FFFCCF9093C60091919923B9F7809165
:1014B00026028823E1F3E2E1F2E091E48091C000AA
:1014C00085FFFCCF9093C60091919923B9F7E6E48C
:1014D000F1E091E48091C00085FFFCCF9093C600BD
:1014E00091919923B9F78EE192E060E04EE051E0EE
:1014F00028EC30E00E94B00286E296E060E04EE028
:1015000051E021ED30E00E94B00210922404DACEC6
:1015100086B190E08095909583FFD4CE60912A06A5
:1015200070912B066150704070932B0660932A06D1
:1015300085E090E00E94520DC5CE86EE91E060EE0F
:1015400040E050E020E030E002E010E00E9437028E
:101550006091790470917A0480917B0490917C046D
:101560000E946C0560E040E050E02EE130E007E0D2
:1015700010E00E9437025B9860912A0670912B065A
:10158000882777FD8095982F0E94000C0E946C059B
:1015900060EE48E151E024E130E00E94B002609149
:1015A000220470912304882777FD8095982F0E944C
:1015B000000C0E946C0563E048E151E02EE130E050
:1015C0000E94B0023ECF86B190E08095909583FF57
:1015D00079CE609122047091230461507040709321
:1015E00023046093220489E090E00E94520D6ACEA9
:1015F00080EE91E060EE1ACF5058BB27AA270ED09C
:1016000075C166D130F06BD120F031F49F3F11F4F9
:101610001EF45BC10EF4E095E7FB51C1E92F77D1D1
:1016200080F3BA17620773078407950718F071F4FF
:101630009EF58FC10EF4E0950B2EBA2FA02D0B0155
:10164000B90190010C01CA01A0011124FF27591B07
:1016500099F0593F50F4503E68F11A16F040A22F0D
:10166000232F342F4427585FF3CF4695379527957E
:10167000A795F0405395C9F77EF41F16BA0B620B7D
:10168000730B840BBAF09150A1F0FF0FBB1F661FC4
:10169000771F881FC2F70EC0BA0F621F731F841F07
:1016A00048F4879577956795B795F7959E3F08F02D
:1016B000B3CF9395880F08F09927EE0F97958795EC
:1016C0000895D9D008F481E008950CD00FC107D156
:1016D00040F0FED030F021F45F3F19F0F0C051111E
:1016E00039C1F3C014D198F39923C9F35523B1F349
:1016F000951B550BBB27AA2762177307840738F081
:101700009F5F5F4F220F331F441FAA1FA9F333D0DF
:101710000E2E3AF0E0E830D091505040E695001C93
:10172000CAF729D0FE2F27D0660F771F881FBB1F4F
:10173000261737074807AB07B0E809F0BB0B802D29
:10174000BF01FF2793585F4F2AF09E3F510568F075
:10175000B6C000C15F3FECF3983EDCF38695779509
:101760006795B795F7959F5FC9F7880F911D969577
:10177000879597F90895E1E0660F771F881FBB1FD3
:10178000621773078407BA0720F0621B730B840B80
:10179000BA0BEE1F88F7E095089504D06894B11154
:1017A000D9C00895BCD088F09F5790F0B92F9927E1
:1017B000B751A0F0D1F0660F771F881F991F1AF05C
:1017C000BA95C9F712C0B13081F0C3D0B1E0089525
:1017D000C0C0672F782F8827B85F39F0B93FCCF3A6
:1017E000869577956795B395D9F73EF49095809552
:1017F000709561957F4F8F4F9F4F0895E89409C072
:1018000097FB3EF490958095709561957F4F8F4F33
:101810009F4F9923A9F0F92F96E9BB279395F69549
:10182000879577956795B795F111F8CFFAF4BB0FC7
:1018300011F460FF1BC06F5F7F4F8F4F9F4F16C02B
:10184000882311F096E911C0772321F09EE8872FB5
:10185000762F05C0662371F096E8862F70E060E071
:101860002AF09A95660F771F881FDAF7880F9695EA
:10187000879597F90895990F0008550FAA0BE0E88E
:10188000FEEF16161706E807F907C0F01216130642
:10189000E407F50798F0621B730B840B950B39F482
:1018A0000A2661F0232B242B252B21F408950A26E8
:1018B00009F4A140A6958FEF811D811D089597F928
:1018C0009F6780E870E060E008959FEF80EC0895E6
:1018D00000240A941616170618060906089500240F
:1018E0000A9412161306140605060895092E039489
:1018F000000C11F4882352F0BB0F40F4BF2B11F4FD
:1019000060FF04C06F5F7F4F8F4F9F4F089557FD5B
:101910009058440F551F59F05F3F71F04795880F5D
:1019200097FB991F61F09F3F79F0879508951216F4
:1019300013061406551FF2CF4695F1DF08C01616A0
:1019400017061806991FF1CF869571056105089451
:101950000895E894BB2766277727CB0197F9089568
:101960008ADF08F48FEF08950BD0C0CFB1DF28F0E5
:10197000B6DF18F0952309F0A2CFA7CF1124EACF44
:10198000C6DFA0F3959FD1F3950F50E0551F629FDE
:10199000F001729FBB27F00DB11D639FAA27F00DC8
:1019A000B11DAA1F649F6627B00DA11D661F829FEF
:1019B0002227B00DA11D621F739FB00DA11D621FD4
:1019C000839FA00D611D221F749F3327A00D611DF1
:1019D000231F849F600D211D822F762F6A2F1124D3
:1019E0009F5750408AF0E1F088234AF0EE0FFF1F26
:1019F000BB1F661F771F881F91505040A9F79E3F5D
:101A0000510570F05CCFA6CF5F3FECF3983EDCF35E
:101A1000869577956795B795F795E7959F5FC1F799
:101A2000FE2B880F911D9695879597F9089597FB42
:101A3000092E07260AD077FD04D00CD006D000204E
:101A40001AF4709561957F4F0895F6F790958195FA
:101A50009F4F0895AA1BBB1B51E107C0AA1FBB1FC4
:101A6000A617B70710F0A61BB70B881F991F5A952A
:101A7000A9F780959095BC01CD010895FB01DC018B
:101A80004150504030F08D910190801919F40020A0
:101A9000B9F7881B990B0895A8E1B0E042E050E047
:101AA0000C94590D0E94670D272F0C94680DDC01D2
:101AB000CB01FC01F999FECF06C0F2BDE1BDF89A59
:101AC000319600B40D9241505040B8F70895262F3A
:101AD000F999FECF1FBA92BD81BD20BD0FB6F89413
:0E1AE000FA9AF99A0FBE01960895F894FFCF76
:101AEE005355504552000D0A302C00C57465727363
:101AFE0074E46C6C65722042746D6F64756C20209A
:101B0E0020202020202020202020202020202020C7
:101B1E0020202020202020202020202020202020B7
:101B2E00202020200041544F0D0041542B6274732D
:101B3E0063616E2C332C300D00536B69636B6172D5
:101B4E0020646174612E000A0D73746172740A0D43
:101B5E00000A0D004A696D6D792076696C6C2068FB
:101B6E0061206D65726120757466796C6C6E61644E
:101B7E00210073746F700A0D002020202020202079
:101B8E002020202020200048F667206C61726D6EA8
:101B9E006976E53A202020202020202020202020B9
:101BAE002020004CE567206C61726D6E6976E53A17
:101BBE002020202020202020202020202020200037
:101BCE004C61726D3F004E75766172616E64652078
:101BDE0074656D7065726174757220E4723A002BD3
:101BEE002B2B0D0041542B4254525353492C310D83
:101BFE000041542B4254525353492C300D0053691B
:101C0E00676E616C3A0001000000000000005F008A
:101C1E00000003000300143E143E14242A7F2A12EF
:101C2E004333086661364955225000050300000013
:101C3E001C2241000041221C0014083E0814080812
:101C4E003E080800503000000808080808006060D0
:101C5E00000020100804023E5149453E04027F0058
:101C6E0000426151494622414949361814127F10EB
:101C7E0027454545393E4949493201017109073623
:101C8E0049494936264949493E0036360000005634
:101C9E0036000008142241001414141414004122BA
:101CAE00140802015109063E4159555E7E09090983
:101CBE007E7F494949363E414141227F4141413E65
:101CCE007F494949417F090909013E4141493A7F0E
:101CDE000808087F00417F4100304040403F7F08A8
:101CEE001422417F404040407F020C027F7F02045D
:101CFE00087F3E4141413E7F090909061E212121EF
:101D0E005E7F09090976264949493201017F0101A1
:101D1E003F4040403F1F2040201F7F2010207F412A
:101D2E00221C224107087008076151494543007F74
:101D3E0041000002040810200000417F000402014F
:101D4E00020440404040400001020400205454541C
:101D5E00787F444444383844444444384444447FAF
:101D6E00385454541804047E0505085454543C7FCA
:101D7E000804047800447D40002040443D007F105C
:101D8E0028440000417F40007C047804787C0804DD
:101D9E00047838444444387C141414080814141479
:101DAE007C007C080404485454542004043F4444EA
:101DBE003C4040207C1C2040201C3C4030403C4499
:101DCE00281028440C5050503C4464544C44000895
:101DDE0036414100007F00004141360800020102F9
:101DEE0004022055545578205455547838454445AE
:101DFE003800000000000000000000015300000049
:021E0E000000D2
:00000001FF
